{
  "contractName": "CRCL",
  "abi": [
    {
      "inputs": [
        {
          "internalType": "string",
          "name": "name",
          "type": "string"
        },
        {
          "internalType": "string",
          "name": "symbol",
          "type": "string"
        },
        {
          "internalType": "uint8",
          "name": "decimals",
          "type": "uint8"
        },
        {
          "internalType": "address",
          "name": "tokenAddr",
          "type": "address"
        },
        {
          "internalType": "uint256",
          "name": "deferTime",
          "type": "uint256"
        },
        {
          "internalType": "bool",
          "name": "isCFX",
          "type": "bool"
        }
      ],
      "payable": false,
      "stateMutability": "nonpayable",
      "type": "constructor"
    },
    {
      "anonymous": false,
      "inputs": [
        {
          "indexed": true,
          "internalType": "address",
          "name": "sender",
          "type": "address"
        },
        {
          "indexed": true,
          "internalType": "address",
          "name": "recipient",
          "type": "address"
        },
        {
          "indexed": false,
          "internalType": "uint256",
          "name": "value",
          "type": "uint256"
        }
      ],
      "name": "Deposit",
      "type": "event"
    },
    {
      "anonymous": false,
      "inputs": [
        {
          "indexed": false,
          "internalType": "address",
          "name": "account",
          "type": "address"
        }
      ],
      "name": "Paused",
      "type": "event"
    },
    {
      "anonymous": false,
      "inputs": [
        {
          "indexed": true,
          "internalType": "address",
          "name": "account",
          "type": "address"
        }
      ],
      "name": "PauserAdded",
      "type": "event"
    },
    {
      "anonymous": false,
      "inputs": [
        {
          "indexed": true,
          "internalType": "address",
          "name": "account",
          "type": "address"
        }
      ],
      "name": "PauserRemoved",
      "type": "event"
    },
    {
      "anonymous": false,
      "inputs": [
        {
          "indexed": true,
          "internalType": "address",
          "name": "sender",
          "type": "address"
        },
        {
          "indexed": false,
          "internalType": "uint256",
          "name": "time",
          "type": "uint256"
        }
      ],
      "name": "ScheduleWithdraw",
      "type": "event"
    },
    {
      "anonymous": false,
      "inputs": [
        {
          "indexed": true,
          "internalType": "address",
          "name": "sender",
          "type": "address"
        },
        {
          "indexed": true,
          "internalType": "address",
          "name": "recipient",
          "type": "address"
        },
        {
          "indexed": false,
          "internalType": "uint256",
          "name": "value",
          "type": "uint256"
        }
      ],
      "name": "Transfer",
      "type": "event"
    },
    {
      "anonymous": false,
      "inputs": [
        {
          "indexed": false,
          "internalType": "address",
          "name": "account",
          "type": "address"
        }
      ],
      "name": "Unpaused",
      "type": "event"
    },
    {
      "anonymous": false,
      "inputs": [
        {
          "indexed": true,
          "internalType": "address",
          "name": "account",
          "type": "address"
        }
      ],
      "name": "WhitelistAdminAdded",
      "type": "event"
    },
    {
      "anonymous": false,
      "inputs": [
        {
          "indexed": true,
          "internalType": "address",
          "name": "account",
          "type": "address"
        }
      ],
      "name": "WhitelistAdminRemoved",
      "type": "event"
    },
    {
      "anonymous": false,
      "inputs": [
        {
          "indexed": true,
          "internalType": "address",
          "name": "account",
          "type": "address"
        }
      ],
      "name": "WhitelistedAdded",
      "type": "event"
    },
    {
      "anonymous": false,
      "inputs": [
        {
          "indexed": true,
          "internalType": "address",
          "name": "account",
          "type": "address"
        }
      ],
      "name": "WhitelistedRemoved",
      "type": "event"
    },
    {
      "anonymous": false,
      "inputs": [
        {
          "indexed": true,
          "internalType": "address",
          "name": "sender",
          "type": "address"
        },
        {
          "indexed": true,
          "internalType": "address",
          "name": "recipient",
          "type": "address"
        },
        {
          "indexed": false,
          "internalType": "uint256",
          "name": "value",
          "type": "uint256"
        }
      ],
      "name": "Withdraw",
      "type": "event"
    },
    {
      "anonymous": false,
      "inputs": [
        {
          "indexed": true,
          "internalType": "address",
          "name": "account",
          "type": "address"
        },
        {
          "indexed": false,
          "internalType": "uint256",
          "name": "balance",
          "type": "uint256"
        }
      ],
      "name": "Write",
      "type": "event"
    },
    {
      "constant": true,
      "inputs": [],
      "name": "EIP712_DOMAIN_HASH",
      "outputs": [
        {
          "internalType": "bytes32",
          "name": "",
          "type": "bytes32"
        }
      ],
      "payable": false,
      "stateMutability": "view",
      "type": "function"
    },
    {
      "constant": true,
      "inputs": [],
      "name": "_deferTime",
      "outputs": [
        {
          "internalType": "uint256",
          "name": "",
          "type": "uint256"
        }
      ],
      "payable": false,
      "stateMutability": "view",
      "type": "function"
    },
    {
      "constant": false,
      "inputs": [
        {
          "internalType": "address",
          "name": "account",
          "type": "address"
        }
      ],
      "name": "addPauser",
      "outputs": [],
      "payable": false,
      "stateMutability": "nonpayable",
      "type": "function"
    },
    {
      "constant": false,
      "inputs": [
        {
          "internalType": "address",
          "name": "account",
          "type": "address"
        }
      ],
      "name": "addWhitelistAdmin",
      "outputs": [],
      "payable": false,
      "stateMutability": "nonpayable",
      "type": "function"
    },
    {
      "constant": false,
      "inputs": [
        {
          "internalType": "address",
          "name": "account",
          "type": "address"
        }
      ],
      "name": "addWhitelisted",
      "outputs": [],
      "payable": false,
      "stateMutability": "nonpayable",
      "type": "function"
    },
    {
      "constant": true,
      "inputs": [],
      "name": "chainId",
      "outputs": [
        {
          "internalType": "uint256",
          "name": "",
          "type": "uint256"
        }
      ],
      "payable": false,
      "stateMutability": "view",
      "type": "function"
    },
    {
      "constant": true,
      "inputs": [],
      "name": "deferTime",
      "outputs": [
        {
          "internalType": "uint256",
          "name": "",
          "type": "uint256"
        }
      ],
      "payable": false,
      "stateMutability": "view",
      "type": "function"
    },
    {
      "constant": true,
      "inputs": [
        {
          "internalType": "address",
          "name": "account",
          "type": "address"
        }
      ],
      "name": "getDeferTime",
      "outputs": [
        {
          "internalType": "uint256",
          "name": "",
          "type": "uint256"
        }
      ],
      "payable": false,
      "stateMutability": "view",
      "type": "function"
    },
    {
      "constant": true,
      "inputs": [
        {
          "components": [
            {
              "internalType": "address",
              "name": "userAddress",
              "type": "address"
            },
            {
              "internalType": "uint256",
              "name": "amount",
              "type": "uint256"
            },
            {
              "internalType": "address",
              "name": "recipient",
              "type": "address"
            },
            {
              "internalType": "bool",
              "name": "burn",
              "type": "bool"
            },
            {
              "internalType": "uint256",
              "name": "nonce",
              "type": "uint256"
            }
          ],
          "internalType": "struct LibRequest.WithdrawRequest",
          "name": "request",
          "type": "tuple"
        }
      ],
      "name": "getRequestHash",
      "outputs": [
        {
          "internalType": "bytes32",
          "name": "requestHash",
          "type": "bytes32"
        }
      ],
      "payable": false,
      "stateMutability": "view",
      "type": "function"
    },
    {
      "constant": true,
      "inputs": [
        {
          "components": [
            {
              "internalType": "address",
              "name": "userAddress",
              "type": "address"
            },
            {
              "internalType": "uint256[]",
              "name": "amounts",
              "type": "uint256[]"
            },
            {
              "internalType": "address[]",
              "name": "recipients",
              "type": "address[]"
            },
            {
              "internalType": "uint256",
              "name": "nonce",
              "type": "uint256"
            }
          ],
          "internalType": "struct LibRequest.TransferRequest",
          "name": "request",
          "type": "tuple"
        }
      ],
      "name": "getTransferRequestHash",
      "outputs": [
        {
          "internalType": "bytes32",
          "name": "requestHash",
          "type": "bytes32"
        }
      ],
      "payable": false,
      "stateMutability": "view",
      "type": "function"
    },
    {
      "constant": true,
      "inputs": [
        {
          "components": [
            {
              "internalType": "address",
              "name": "userAddress",
              "type": "address"
            },
            {
              "internalType": "uint256",
              "name": "amount",
              "type": "uint256"
            },
            {
              "internalType": "string",
              "name": "recipient",
              "type": "string"
            },
            {
              "internalType": "address",
              "name": "defiRelayer",
              "type": "address"
            },
            {
              "internalType": "uint256",
              "name": "fee",
              "type": "uint256"
            },
            {
              "internalType": "uint256",
              "name": "nonce",
              "type": "uint256"
            }
          ],
          "internalType": "struct LibRequest.WithdrawCrossChainRequest",
          "name": "request",
          "type": "tuple"
        }
      ],
      "name": "getWithdrawCrossChainRequestHash",
      "outputs": [
        {
          "internalType": "bytes32",
          "name": "requestHash",
          "type": "bytes32"
        }
      ],
      "payable": false,
      "stateMutability": "view",
      "type": "function"
    },
    {
      "constant": true,
      "inputs": [
        {
          "internalType": "address",
          "name": "account",
          "type": "address"
        }
      ],
      "name": "isPauser",
      "outputs": [
        {
          "internalType": "bool",
          "name": "",
          "type": "bool"
        }
      ],
      "payable": false,
      "stateMutability": "view",
      "type": "function"
    },
    {
      "constant": true,
      "inputs": [
        {
          "internalType": "bytes32",
          "name": "hash",
          "type": "bytes32"
        },
        {
          "internalType": "address",
          "name": "signerAddress",
          "type": "address"
        },
        {
          "internalType": "bytes",
          "name": "signature",
          "type": "bytes"
        }
      ],
      "name": "isValidSignature",
      "outputs": [
        {
          "internalType": "bool",
          "name": "isValid",
          "type": "bool"
        }
      ],
      "payable": false,
      "stateMutability": "pure",
      "type": "function"
    },
    {
      "constant": true,
      "inputs": [
        {
          "internalType": "address",
          "name": "account",
          "type": "address"
        }
      ],
      "name": "isWhitelistAdmin",
      "outputs": [
        {
          "internalType": "bool",
          "name": "",
          "type": "bool"
        }
      ],
      "payable": false,
      "stateMutability": "view",
      "type": "function"
    },
    {
      "constant": true,
      "inputs": [
        {
          "internalType": "address",
          "name": "account",
          "type": "address"
        }
      ],
      "name": "isWhitelisted",
      "outputs": [
        {
          "internalType": "bool",
          "name": "",
          "type": "bool"
        }
      ],
      "payable": false,
      "stateMutability": "view",
      "type": "function"
    },
    {
      "constant": false,
      "inputs": [],
      "name": "pause",
      "outputs": [],
      "payable": false,
      "stateMutability": "nonpayable",
      "type": "function"
    },
    {
      "constant": true,
      "inputs": [],
      "name": "paused",
      "outputs": [
        {
          "internalType": "bool",
          "name": "",
          "type": "bool"
        }
      ],
      "payable": false,
      "stateMutability": "view",
      "type": "function"
    },
    {
      "constant": false,
      "inputs": [
        {
          "internalType": "address",
          "name": "account",
          "type": "address"
        }
      ],
      "name": "removeWhitelisted",
      "outputs": [],
      "payable": false,
      "stateMutability": "nonpayable",
      "type": "function"
    },
    {
      "constant": false,
      "inputs": [],
      "name": "renouncePauser",
      "outputs": [],
      "payable": false,
      "stateMutability": "nonpayable",
      "type": "function"
    },
    {
      "constant": false,
      "inputs": [],
      "name": "renounceWhitelistAdmin",
      "outputs": [],
      "payable": false,
      "stateMutability": "nonpayable",
      "type": "function"
    },
    {
      "constant": false,
      "inputs": [],
      "name": "renounceWhitelisted",
      "outputs": [],
      "payable": false,
      "stateMutability": "nonpayable",
      "type": "function"
    },
    {
      "constant": false,
      "inputs": [
        {
          "internalType": "uint256",
          "name": "time",
          "type": "uint256"
        }
      ],
      "name": "setDeferTime",
      "outputs": [
        {
          "internalType": "bool",
          "name": "",
          "type": "bool"
        }
      ],
      "payable": false,
      "stateMutability": "nonpayable",
      "type": "function"
    },
    {
      "constant": true,
      "inputs": [],
      "name": "timestamp",
      "outputs": [
        {
          "internalType": "uint256",
          "name": "",
          "type": "uint256"
        }
      ],
      "payable": false,
      "stateMutability": "view",
      "type": "function"
    },
    {
      "constant": true,
      "inputs": [
        {
          "internalType": "bytes32",
          "name": "",
          "type": "bytes32"
        }
      ],
      "name": "timestamps",
      "outputs": [
        {
          "internalType": "uint256",
          "name": "",
          "type": "uint256"
        }
      ],
      "payable": false,
      "stateMutability": "view",
      "type": "function"
    },
    {
      "constant": false,
      "inputs": [],
      "name": "unpause",
      "outputs": [],
      "payable": false,
      "stateMutability": "nonpayable",
      "type": "function"
    },
    {
      "constant": true,
      "inputs": [],
      "name": "name",
      "outputs": [
        {
          "internalType": "string",
          "name": "",
          "type": "string"
        }
      ],
      "payable": false,
      "stateMutability": "view",
      "type": "function"
    },
    {
      "constant": true,
      "inputs": [],
      "name": "symbol",
      "outputs": [
        {
          "internalType": "string",
          "name": "",
          "type": "string"
        }
      ],
      "payable": false,
      "stateMutability": "view",
      "type": "function"
    },
    {
      "constant": true,
      "inputs": [],
      "name": "decimals",
      "outputs": [
        {
          "internalType": "uint256",
          "name": "",
          "type": "uint256"
        }
      ],
      "payable": false,
      "stateMutability": "view",
      "type": "function"
    },
    {
      "constant": true,
      "inputs": [],
      "name": "totalSupply",
      "outputs": [
        {
          "internalType": "uint256",
          "name": "",
          "type": "uint256"
        }
      ],
      "payable": false,
      "stateMutability": "view",
      "type": "function"
    },
    {
      "constant": true,
      "inputs": [
        {
          "internalType": "address",
          "name": "account",
          "type": "address"
        }
      ],
      "name": "balanceOf",
      "outputs": [
        {
          "internalType": "uint256",
          "name": "",
          "type": "uint256"
        }
      ],
      "payable": false,
      "stateMutability": "view",
      "type": "function"
    },
    {
      "constant": true,
      "inputs": [],
      "name": "getTokenAddress",
      "outputs": [
        {
          "internalType": "address",
          "name": "",
          "type": "address"
        }
      ],
      "payable": false,
      "stateMutability": "view",
      "type": "function"
    },
    {
      "constant": false,
      "inputs": [
        {
          "internalType": "address",
          "name": "tokenAddr",
          "type": "address"
        }
      ],
      "name": "setTokenAddress",
      "outputs": [
        {
          "internalType": "bool",
          "name": "",
          "type": "bool"
        }
      ],
      "payable": false,
      "stateMutability": "nonpayable",
      "type": "function"
    },
    {
      "constant": true,
      "inputs": [],
      "name": "accountTotal",
      "outputs": [
        {
          "internalType": "uint256",
          "name": "",
          "type": "uint256"
        }
      ],
      "payable": false,
      "stateMutability": "view",
      "type": "function"
    },
    {
      "constant": true,
      "inputs": [
        {
          "internalType": "uint256",
          "name": "begin",
          "type": "uint256"
        }
      ],
      "name": "accountList",
      "outputs": [
        {
          "internalType": "address[100]",
          "name": "",
          "type": "address[100]"
        }
      ],
      "payable": false,
      "stateMutability": "view",
      "type": "function"
    },
    {
      "constant": true,
      "inputs": [],
      "name": "getTimestamp",
      "outputs": [
        {
          "internalType": "uint256",
          "name": "",
          "type": "uint256"
        }
      ],
      "payable": false,
      "stateMutability": "view",
      "type": "function"
    },
    {
      "constant": false,
      "inputs": [
        {
          "internalType": "uint256",
          "name": "newTimestamp",
          "type": "uint256"
        }
      ],
      "name": "setTimestamp",
      "outputs": [],
      "payable": false,
      "stateMutability": "nonpayable",
      "type": "function"
    },
    {
      "constant": false,
      "inputs": [
        {
          "internalType": "bytes32[]",
          "name": "hashes",
          "type": "bytes32[]"
        }
      ],
      "name": "removeObsoleteData",
      "outputs": [],
      "payable": false,
      "stateMutability": "nonpayable",
      "type": "function"
    },
    {
      "constant": false,
      "inputs": [
        {
          "internalType": "address",
          "name": "sender",
          "type": "address"
        },
        {
          "internalType": "address",
          "name": "recipient",
          "type": "address"
        },
        {
          "internalType": "uint256",
          "name": "amount",
          "type": "uint256"
        }
      ],
      "name": "transferFrom",
      "outputs": [
        {
          "internalType": "bool",
          "name": "",
          "type": "bool"
        }
      ],
      "payable": false,
      "stateMutability": "nonpayable",
      "type": "function"
    },
    {
      "constant": false,
      "inputs": [
        {
          "components": [
            {
              "internalType": "address",
              "name": "userAddress",
              "type": "address"
            },
            {
              "internalType": "uint256[]",
              "name": "amounts",
              "type": "uint256[]"
            },
            {
              "internalType": "address[]",
              "name": "recipients",
              "type": "address[]"
            },
            {
              "internalType": "uint256",
              "name": "nonce",
              "type": "uint256"
            }
          ],
          "internalType": "struct LibRequest.TransferRequest",
          "name": "request",
          "type": "tuple"
        },
        {
          "internalType": "bytes",
          "name": "signature",
          "type": "bytes"
        }
      ],
      "name": "transferFor",
      "outputs": [
        {
          "internalType": "bool",
          "name": "",
          "type": "bool"
        }
      ],
      "payable": false,
      "stateMutability": "nonpayable",
      "type": "function"
    },
    {
      "constant": false,
      "inputs": [
        {
          "internalType": "address",
          "name": "",
          "type": "address"
        },
        {
          "internalType": "address",
          "name": "from",
          "type": "address"
        },
        {
          "internalType": "address",
          "name": "to",
          "type": "address"
        },
        {
          "internalType": "uint256",
          "name": "amount",
          "type": "uint256"
        },
        {
          "internalType": "bytes",
          "name": "userData",
          "type": "bytes"
        },
        {
          "internalType": "bytes",
          "name": "",
          "type": "bytes"
        }
      ],
      "name": "tokensReceived",
      "outputs": [],
      "payable": false,
      "stateMutability": "nonpayable",
      "type": "function"
    },
    {
      "constant": false,
      "inputs": [
        {
          "internalType": "address",
          "name": "to",
          "type": "address"
        },
        {
          "internalType": "uint256",
          "name": "amount",
          "type": "uint256"
        }
      ],
      "name": "deposit",
      "outputs": [],
      "payable": false,
      "stateMutability": "nonpayable",
      "type": "function"
    },
    {
      "constant": false,
      "inputs": [
        {
          "components": [
            {
              "internalType": "address",
              "name": "userAddress",
              "type": "address"
            },
            {
              "internalType": "uint256",
              "name": "amount",
              "type": "uint256"
            },
            {
              "internalType": "address",
              "name": "recipient",
              "type": "address"
            },
            {
              "internalType": "bool",
              "name": "burn",
              "type": "bool"
            },
            {
              "internalType": "uint256",
              "name": "nonce",
              "type": "uint256"
            }
          ],
          "internalType": "struct LibRequest.WithdrawRequest",
          "name": "request",
          "type": "tuple"
        },
        {
          "internalType": "bytes",
          "name": "signature",
          "type": "bytes"
        }
      ],
      "name": "withdraw",
      "outputs": [
        {
          "internalType": "bool",
          "name": "",
          "type": "bool"
        }
      ],
      "payable": false,
      "stateMutability": "nonpayable",
      "type": "function"
    },
    {
      "constant": false,
      "inputs": [
        {
          "components": [
            {
              "internalType": "address",
              "name": "userAddress",
              "type": "address"
            },
            {
              "internalType": "uint256",
              "name": "amount",
              "type": "uint256"
            },
            {
              "internalType": "string",
              "name": "recipient",
              "type": "string"
            },
            {
              "internalType": "address",
              "name": "defiRelayer",
              "type": "address"
            },
            {
              "internalType": "uint256",
              "name": "fee",
              "type": "uint256"
            },
            {
              "internalType": "uint256",
              "name": "nonce",
              "type": "uint256"
            }
          ],
          "internalType": "struct LibRequest.WithdrawCrossChainRequest",
          "name": "request",
          "type": "tuple"
        },
        {
          "internalType": "bytes",
          "name": "signature",
          "type": "bytes"
        }
      ],
      "name": "withdrawCrossChain",
      "outputs": [
        {
          "internalType": "bool",
          "name": "",
          "type": "bool"
        }
      ],
      "payable": false,
      "stateMutability": "nonpayable",
      "type": "function"
    },
    {
      "constant": false,
      "inputs": [],
      "name": "requestForceWithdraw",
      "outputs": [
        {
          "internalType": "bool",
          "name": "",
          "type": "bool"
        }
      ],
      "payable": false,
      "stateMutability": "nonpayable",
      "type": "function"
    },
    {
      "constant": false,
      "inputs": [
        {
          "internalType": "address",
          "name": "recipient",
          "type": "address"
        }
      ],
      "name": "forceWithdraw",
      "outputs": [
        {
          "internalType": "bool",
          "name": "",
          "type": "bool"
        }
      ],
      "payable": false,
      "stateMutability": "nonpayable",
      "type": "function"
    },
    {
      "constant": false,
      "inputs": [],
      "name": "Pause",
      "outputs": [],
      "payable": false,
      "stateMutability": "nonpayable",
      "type": "function"
    },
    {
      "constant": false,
      "inputs": [],
      "name": "Resume",
      "outputs": [],
      "payable": false,
      "stateMutability": "nonpayable",
      "type": "function"
    }
  ],
  "bytecode": "0x6080604052600580546001600160a01b0319163017905560006011553480156200002857600080fd5b50604051620045de380380620045de8339810160408190526200004b9162000504565b8162000072620000636001600160e01b036200027716565b6001600160e01b036200027c16565b6002554660048190556040516200008c90602001620007b6565b60408051601f198184030181528282528051602091820120838301835260048085526310d490d360e21b948301949094528251808401845260038152620312e360ec1b90830152925460055492516200013894937f92e0d4302bfe4f52763e6677c92016018a1b7dde3c9b2e015849e403a0f84d06937fe6bbd6277e1bf288eed5e8d1780f9a50b239e86b153736bceebccf4ea79d90b393926001600160a01b0390921691016200083a565b60408051601f198184030181529190528051602090910120600655506200017a6200016b6001600160e01b036200027716565b6001600160e01b03620002ce16565b6008805460ff19169055855162000199906009906020890190620003d2565b508451620001af90600b906020880190620003d2565b5060ff8416600c55600d80546001600160a01b0319166001600160a01b038516179055600a805460ff1916821515179055604051731820a4b7618bde71dce8cdc73aab6c95905fad24906329965a1d9030906200020c90620007a9565b6040519081900381206001600160e01b031960e085901b168252620002379291309060040162000804565b600060405180830381600087803b1580156200025257600080fd5b505af115801562000267573d6000803e3d6000fd5b50505050505050505050620009a3565b335b90565b620002978160006200032060201b620020d81790919060201c565b6040516001600160a01b038216907f22380c05984257a1cb900161c713dd71d39e74820f1aea43bd3f1bdd2096129990600090a250565b620002e98160076200032060201b620020d81790919060201c565b6040516001600160a01b038216907f6719d08c1888103bea251a4ed56406bd0c3e69723c8a1686e017e7bbe159b6f890600090a250565b6200033582826001600160e01b036200038316565b156200035e5760405162461bcd60e51b8152600401620003559062000890565b60405180910390fd5b6001600160a01b0316600090815260209190915260409020805460ff19166001179055565b60006001600160a01b038216620003ae5760405162461bcd60e51b81526004016200035590620008a2565b506001600160a01b03811660009081526020839052604090205460ff165b92915050565b828054600181600116156101000203166002900490600052602060002090601f016020900481019282601f106200041557805160ff191683800117855562000445565b8280016001018555821562000445579182015b828111156200044557825182559160200191906001019062000428565b506200045392915062000457565b5090565b6200027991905b808211156200045357600081556001016200045e565b8051620003cc8162000968565b8051620003cc8162000982565b600082601f830112620004a057600080fd5b8151620004b7620004b182620008db565b620008b4565b91508082526020830160208301858383011115620004d457600080fd5b620004e183828462000935565b50505092915050565b8051620003cc816200098d565b8051620003cc8162000998565b60008060008060008060c087890312156200051e57600080fd5b86516001600160401b038111156200053557600080fd5b6200054389828a016200048e565b96505060208701516001600160401b038111156200056057600080fd5b6200056e89828a016200048e565b95505060406200058189828a01620004f7565b94505060606200059489828a0162000474565b9350506080620005a789828a01620004ea565b92505060a0620005ba89828a0162000481565b9150509295509295509295565b620005d28162000911565b82525050565b620005d28162000279565b6000620005f2600c836200090c565b6b1cdd1c9a5b99c81b985b594b60a21b8152600c0192915050565b60006200061c601f8362000903565b7f526f6c65733a206163636f756e7420616c72656164792068617320726f6c6500815260200192915050565b6000620006576019836200090c565b7f6164647265737320766572696679696e67436f6e747261637400000000000000815260190192915050565b6000620006926010836200090c565b6f1d5a5b9d0c8d4d8818da185a5b92590b60821b815260100192915050565b6000620006c06001836200090c565b602960f81b815260010192915050565b6000620006df600f836200090c565b6e1cdd1c9a5b99c81d995c9cda5bdb8b608a1b8152600f0192915050565b60006200070c60228362000903565b7f526f6c65733a206163636f756e7420697320746865207a65726f206164647265815261737360f01b602082015260400192915050565b6000620007526015836200090c565b7f455243373737546f6b656e73526563697069656e740000000000000000000000815260150192915050565b60006200078d600d836200090c565b6c08a92a06e626488dedac2d2dc5609b1b8152600d0192915050565b6000620003cc8262000743565b6000620007c3826200077e565b9150620007d082620005e3565b9150620007dd82620006d0565b9150620007ea8262000683565b9150620007f78262000648565b9150620003cc82620006b1565b60608101620008148286620005c7565b620008236020830185620005d8565b620008326040830184620005c7565b949350505050565b60a081016200084a8288620005d8565b620008596020830187620005d8565b620008686040830186620005d8565b620008776060830185620005d8565b620008866080830184620005c7565b9695505050505050565b60208082528101620003cc816200060d565b60208082528101620003cc81620006fd565b6040518181016001600160401b0381118282101715620008d357600080fd5b604052919050565b60006001600160401b03821115620008f257600080fd5b506020601f91909101601f19160190565b90815260200190565b919050565b6000620003cc8262000923565b151590565b6001600160a01b031690565b60ff1690565b60005b838110156200095257818101518382015260200162000938565b8381111562000962576000848401525b50505050565b620009738162000911565b81146200097f57600080fd5b50565b62000973816200091e565b620009738162000279565b62000973816200092f565b613c2b80620009b36000396000f3fe608060405234801561001057600080fd5b50600436106103145760003560e01c80637362d9c8116101a7578063b5872958116100ee578063d6cd947311610097578063e306f77911610071578063e306f779146105d8578063f03c2554146105e0578063f8c4bbf2146105f357610314565b8063d6cd9473146105b5578063d94f5b39146105bd578063da60d27e146105d057610314565b8063bb5f747b116100c8578063bb5f747b14610592578063c5de069a146105a5578063c9ac73c8146105ad57610314565b8063b587295814610564578063b80777ea14610577578063b98152891461057f57610314565b806393634702116101505780639844713b1161012a5780639844713b146105365780639a8a059214610549578063a0a2b5731461055157610314565b8063936347021461050857806394f7cda21461051b57806395d89b411461052e57610314565b806382dc1ec41161018157806382dc1ec4146104da5780638456cb59146104ed578063882f3e16146104f557610314565b80637362d9c8146104a15780637b1d2946146104b45780637c6ecf28146104c757610314565b8063313ce5671161026b5780634c5a628c116102145780636985a022116101ee5780636985a0221461047e5780636ef8d66d1461048657806370a082311461048e57610314565b80634c5a628c1461044e5780634ea98d16146104565780635c975abb1461047657610314565b806346fbf68e1161024557806346fbf68e1461042057806347e7ef2414610433578063490d6d111461044657610314565b8063313ce567146103fd5780633af32abf146104055780633f4ba83a1461041857610314565b8063188ec356116102cd57806328acc9e7116102a757806328acc9e7146103c4578063291d9549146103d75780632a8961bb146103ea57610314565b8063188ec3561461038957806323b872dd1461039157806326a4e8d2146103b157610314565b806310154bad116102fe57806310154bad1461034c57806310fe9ae81461035f57806318160ddd1461037457610314565b806223de291461031957806306fdde031461032e575b600080fd5b61032c6103273660046125ca565b6105fb565b005b6103366106b1565b60405161034391906136bb565b60405180910390f35b61032c61035a3660046125a4565b610747565b61036761077a565b604051610343919061349c565b61037c610789565b604051610343919061356b565b61037c61078f565b6103a461039f366004612681565b610795565b604051610343919061355d565b6103a46103bf3660046125a4565b610845565b61032c6103d2366004612708565b6108a0565b61032c6103e53660046125a4565b610989565b6103a46103f836600461289d565b6109b9565b61037c610b6a565b6103a46104133660046125a4565b610b70565b61032c610b83565b6103a461042e3660046125a4565b610c16565b61032c6104413660046126ce565b610c29565b61032c610cf7565b61032c610d28565b61046961046436600461275b565b610d38565b604051610343919061354e565b6103a4610de9565b61032c610df2565b61032c610e21565b61037c61049c3660046125a4565b610e31565b61032c6104af3660046125a4565b610e4c565b61037c6104c23660046125a4565b610e7c565b61037c6104d53660046127d4565b610ec1565b61032c6104e83660046125a4565b610ed4565b61032c610f04565b6103a46105033660046125a4565b610f84565b6103a4610516366004612779565b611093565b6103a46105293660046128f1565b6111b0565b61033661139e565b6103a461054436600461275b565b6113ff565b61037c611431565b61032c61055f36600461275b565b611437565b61037c61057236600461275b565b611484565b61037c611496565b6103a461058d366004612809565b61149c565b6103a46105a03660046125a4565b61160c565b61037c61161e565b61037c611624565b61032c61162a565b61037c6105cb3660046128d3565b61163a565b6103a4611648565b61037c611661565b61037c6105ee366004612868565b611667565b61037c611675565b60085460ff16156106275760405162461bcd60e51b815260040161061e906137dc565b60405180910390fd5b600d546001600160a01b031661063b61167b565b6001600160a01b0316146106615760405162461bcd60e51b815260040161061e906138bc565b6001600160a01b03841630146106895760405162461bcd60e51b815260040161061e9061386c565b60148201516001600160a01b038116156106a8576106a886828661167f565b50505050505050565b60098054604080516020601f600260001961010060018816150201909516949094049384018190048102820181019092528281526060939092909183018282801561073d5780601f106107125761010080835404028352916020019161073d565b820191906000526020600020905b81548152906001019060200180831161072057829003601f168201915b5050505050905090565b6107526105a061167b565b61076e5760405162461bcd60e51b815260040161061e9061384c565b61077781611728565b50565b600d546001600160a01b031690565b600f5490565b60115490565b60006107a261041361167b565b6107be5760405162461bcd60e51b815260040161061e9061388c565b60085460ff16156107e15760405162461bcd60e51b815260040161061e906137dc565b6001600160a01b0384166108075760405162461bcd60e51b815260040161061e906137cc565b6001600160a01b03831661082d5760405162461bcd60e51b815260040161061e906137ec565b610838848484611770565b50600190505b9392505050565b60006108526105a061167b565b61086e5760405162461bcd60e51b815260040161061e9061384c565b50600d80546001600160a01b03831673ffffffffffffffffffffffffffffffffffffffff199091161790556001919050565b6108ab6105a061167b565b6108c75760405162461bcd60e51b815260040161061e9061384c565b60005b815181101561098557601060008383815181106108e357fe5b60200260200101518152602001908152602001600020546000141561091a5760405162461bcd60e51b815260040161061e9061377c565b6011546010600084848151811061092d57fe5b6020026020010151815260200190815260200160002054106109615760405162461bcd60e51b815260040161061e9061379c565b61097d82828151811061097057fe5b60200260200101516118df565b6001016108ca565b5050565b6109946105a061167b565b6109b05760405162461bcd60e51b815260040161061e9061384c565b61077781611904565b60006109c66105a061167b565b6109e25760405162461bcd60e51b815260040161061e9061384c565b60085460ff1615610a055760405162461bcd60e51b815260040161061e906137dc565b6000610a1084611667565b9050610a2181856000015185611093565b610a3d5760405162461bcd60e51b815260040161061e906137ac565b6011548460a001511015610a635760405162461bcd60e51b815260040161061e9061385c565b60a084015160008281526010602090815260409182902092909255600d5486519287015160808801518389015160608a015194517fcb55417e0000000000000000000000000000000000000000000000000000000081526001600160a01b039094169563cb55417e95610add9591949392916004016134fb565b602060405180830381600087803b158015610af757600080fd5b505af1158015610b0b573d6000803e3d6000fd5b505050506040513d601f19601f82011682018060405250610b2f919081019061273d565b50610b428460000151856020015161194c565b610b5e5760405162461bcd60e51b815260040161061e9061372c565b60019150505b92915050565b600c5490565b6000610b6460018363ffffffff611a3516565b610b8e61042e61167b565b610baa5760405162461bcd60e51b815260040161061e9061371c565b60085460ff16610bcc5760405162461bcd60e51b815260040161061e906136fc565b6008805460ff191690557f5db9ee0a495bf2e6ff9c91a7834c1ba4fdd244a5e8aa4e537bd38aeae4b073aa610bff61167b565b604051610c0c91906134aa565b60405180910390a1565b6000610b6460078363ffffffff611a3516565b60085460ff1615610c4c5760405162461bcd60e51b815260040161061e906137dc565b600d546040517f23b872dd0000000000000000000000000000000000000000000000000000000081526001600160a01b03909116906323b872dd90610c99903390309086906004016134b8565b602060405180830381600087803b158015610cb357600080fd5b505af1158015610cc7573d6000803e3d6000fd5b505050506040513d601f19601f82011682018060405250610ceb919081019061273d565b5061098533838361167f565b610d026105a061167b565b610d1e5760405162461bcd60e51b815260040161061e9061384c565b610d26610b83565b565b610d26610d3361167b565b611a7d565b610d406121da565b6013548210610d615760405162461bcd60e51b815260040161061e906136ec565b610d696121da565b601354600090610d8990610d8486606463ffffffff611ac516565b611aea565b9050835b81811015610de05760138181548110610da257fe5b6000918252602090912001546001600160a01b03168386830360648110610dc557fe5b6001600160a01b039092166020929092020152600101610d8d565b50909392505050565b60085460ff1690565b610dfd6105a061167b565b610e195760405162461bcd60e51b815260040161061e9061384c565b610d26610f04565b610d26610e2c61167b565b611b02565b6001600160a01b03166000908152600e602052604090205490565b610e576105a061167b565b610e735760405162461bcd60e51b815260040161061e9061384c565b61077781611b4a565b6000610e896105a061167b565b610ea55760405162461bcd60e51b815260040161061e9061384c565b506001600160a01b031660009081526003602052604090205490565b6000610b64610ecf83611b92565b611c64565b610edf61042e61167b565b610efb5760405162461bcd60e51b815260040161061e9061371c565b61077781611ca4565b610f0f61042e61167b565b610f2b5760405162461bcd60e51b815260040161061e9061371c565b60085460ff1615610f4e5760405162461bcd60e51b815260040161061e906137dc565b6008805460ff191660011790557f62e78cea01bee320cd4e420270b5ea74000d11b0c9f74754ebdbfc544b05a258610bff61167b565b600060036000610f9261167b565b6001600160a01b03168152602081019190915260400160002054610fc85760405162461bcd60e51b815260040161061e9061389c565b61100060025460036000610fda61167b565b6001600160a01b031681526020810191909152604001600020549063ffffffff611ac516565b42101561101f5760405162461bcd60e51b815260040161061e906138cc565b61105d61102a61167b565b83600e600061103761167b565b6001600160a01b03166001600160a01b0316815260200190815260200160002054611cec565b6110795760405162461bcd60e51b815260040161061e9061375c565b61108b61108461167b565b6000611df5565b506001919050565b60006001600160a01b0383166110bb5760405162461bcd60e51b815260040161061e906137fc565b81516041146110dc5760405162461bcd60e51b815260040161061e906136dc565b6000826040815181106110eb57fe5b016020015160f81c9050601b81148061110757508060ff16601c145b6111235760405162461bcd60e51b815260040161061e9061387c565b6000611130846000611e4c565b9050600061113f856020611e4c565b905060018784848460405160008152602001604052604051611164949392919061367d565b6020604051602081039080840390855afa158015611186573d6000803e3d6000fd5b505050602060405103516001600160a01b0316866001600160a01b03161493505050509392505050565b60006111bd6105a061167b565b6111d95760405162461bcd60e51b815260040161061e9061384c565b60085460ff16156111fc5760405162461bcd60e51b815260040161061e906137dc565b60006112078461163a565b905061121881856000015185611093565b6112345760405162461bcd60e51b815260040161061e906137ac565b6011548460800151101561125a5760405162461bcd60e51b815260040161061e9061385c565b6080840151600082815260106020526040902055606084015115806112815750600a5460ff165b61129d5760405162461bcd60e51b815260040161061e906138fc565b83606001511561136b57600d5460208086015160408088015190516001600160a01b039094169363fe9d9303936112d5929101613463565b6040516020818303038152906040526040518363ffffffff1660e01b815260040161130192919061390c565b600060405180830381600087803b15801561131b57600080fd5b505af115801561132f573d6000803e3d6000fd5b505050506113458460000151856020015161194c565b6113615760405162461bcd60e51b815260040161061e9061372c565b6001915050610b64565b611382846000015185604001518660200151611cec565b610b5e5760405162461bcd60e51b815260040161061e906138dc565b600b8054604080516020601f600260001961010060018816150201909516949094049384018190048102820181019092528281526060939092909183018282801561073d5780601f106107125761010080835404028352916020019161073d565b600061140c6105a061167b565b6114285760405162461bcd60e51b815260040161061e9061384c565b50600255600190565b60045481565b6114426105a061167b565b61145e5760405162461bcd60e51b815260040161061e9061384c565b601154811161147f5760405162461bcd60e51b815260040161061e9061373c565b601155565b60106020526000908152604090205481565b60115481565b60006114a96105a061167b565b6114c55760405162461bcd60e51b815260040161061e9061384c565b60085460ff16156114e85760405162461bcd60e51b815260040161061e906137dc565b82516001600160a01b031661150f5760405162461bcd60e51b815260040161061e906138ec565b826040015151836020015151146115385760405162461bcd60e51b815260040161061e906137bc565b600061154384610ec1565b905061155481856000015185611093565b6115705760405162461bcd60e51b815260040161061e9061374c565b601154846060015110156115965760405162461bcd60e51b815260040161061e9061385c565b60608401516000828152601060205260408120919091555b846040015151811015611601576115f88560000151866040015183815181106115d357fe5b6020026020010151876020015184815181106115eb57fe5b6020026020010151611770565b506001016115ae565b506001949350505050565b6000610b64818363ffffffff611a3516565b60025481565b60025490565b610d2661163561167b565b611904565b6000610b64610ecf83611e7b565b600061165b61165561167b565b42611df5565b50600190565b60065481565b6000610b64610ecf83611eea565b60135490565b3390565b6001600160a01b0382166116a55760405162461bcd60e51b815260040161061e906136cc565b6001600160a01b0383163014156116ce5760405162461bcd60e51b815260040161061e9061378c565b6116d88282611f85565b816001600160a01b0316836001600160a01b03167f5548c837ab068cf56a2c2479df0882a4922fd203edb7517321831d95078c5f628360405161171b919061356b565b60405180910390a3505050565b61173960018263ffffffff6120d816565b6040516001600160a01b038216907fee1504a83b6d4a361f4c1dc78ab59bfa30d6a3b6612c403e86bb01ef2984295f90600090a250565b6001600160a01b03821660009081526012602052604081205460ff16611803576001600160a01b0383166000818152601260205260408120805460ff191660019081179091556013805491820181559091527f66de8ffda797e3de9c05e8fc57b3bf0ec28a930d40b0d285d93c06501cf6a09001805473ffffffffffffffffffffffffffffffffffffffff191690911790555b611846826040518060600160405280602c8152602001613aee602c91396001600160a01b0387166000908152600e6020526040902054919063ffffffff61212416565b6001600160a01b038086166000908152600e6020526040808220939093559085168152205461187b908363ffffffff611ac516565b6001600160a01b038085166000818152600e602052604090819020939093559151908616907fddf252ad1be2c89b69c2b068fc378daa952ba7f163c4a11628f55a4df523b3ef906118cd90869061356b565b60405180910390a35060019392505050565b6000818152601060205260409020541561077757600090815260106020526040812055565b61191560018263ffffffff61215016565b6040516001600160a01b038216907f270d9b30cf5b0793bbfd54c9d5b94aeb49462b8148399000265144a8722da6b690600090a250565b60006001600160a01b0383166119745760405162461bcd60e51b815260040161061e9061381c565b6119b782604051806060016040528060218152602001613acd602191396001600160a01b0386166000908152600e6020526040902054919063ffffffff61212416565b6001600160a01b0384166000908152600e6020526040902055600f546119e3908363ffffffff61219816565b600f556040516000906001600160a01b038516907fddf252ad1be2c89b69c2b068fc378daa952ba7f163c4a11628f55a4df523b3ef90611a2490869061356b565b60405180910390a350600192915050565b60006001600160a01b038216611a5d5760405162461bcd60e51b815260040161061e9061383c565b506001600160a01b03166000908152602091909152604090205460ff1690565b611a8e60008263ffffffff61215016565b6040516001600160a01b038216907f0a8eb35e5ca14b3d6f28e4abf2f128dbab231a58b56e89beb5d636115001e16590600090a250565b60008282018381101561083e5760405162461bcd60e51b815260040161061e9061376c565b600081831115611afb575080610b64565b5090919050565b611b1360078263ffffffff61215016565b6040516001600160a01b038216907fcd265ebaf09df2871cc7bd4133404a235ba12eff2041bb89d9c714a2621c7c7e90600090a250565b611b5b60008263ffffffff6120d816565b6040516001600160a01b038216907f22380c05984257a1cb900161c713dd71d39e74820f1aea43bd3f1bdd2096129990600090a250565b6000604051806080016040528060598152602001613a7460599139604051602001611bbd9190613490565b6040516020818303038152906040528051906020012082600001518360200151604051602001611bed9190613484565b604051602081830303815290604052805190602001208460400151604051602001611c189190613478565b604051602081830303815290604052805190602001208560600151604051602001611c47959493929190613579565b604051602081830303815290604052805190602001209050919050565b6006546040517f19010000000000000000000000000000000000000000000000000000000000008152600281019190915260228101919091526042902090565b611cb560078263ffffffff6120d816565b6040516001600160a01b038216907f6719d08c1888103bea251a4ed56406bd0c3e69723c8a1686e017e7bbe159b6f890600090a250565b6000611cf8848361194c565b611d145760405162461bcd60e51b815260040161061e9061372c565b600d546040517fa9059cbb0000000000000000000000000000000000000000000000000000000081526001600160a01b039091169063a9059cbb90611d5f90869086906004016134e0565b602060405180830381600087803b158015611d7957600080fd5b505af1158015611d8d573d6000803e3d6000fd5b505050506040513d601f19601f82011682018060405250611db1919081019061273d565b50826001600160a01b0316846001600160a01b03167f9b1bfa7fa9ee420a16e124f794c35ac9f90472acc99140eb2f6447c714cad8eb846040516118cd919061356b565b6001600160a01b03821660008181526003602052604090819020839055517f0ebe7b96b8d0566030cee68cd5153d3af3eb238d56092c9493a18e6d0b56836990611e4090849061356b565b60405180910390a25050565b60008160200183511015611e725760405162461bcd60e51b815260040161061e9061382c565b50016020015190565b60006040518060800160405280605d8152602001613b1a605d9139604051602001611ea69190613490565b6040516020818303038152906040528051906020012082600001518360200151846040015185606001518660800151604051602001611c47969594939291906135bb565b60006040518060a0016040528060728152602001613b7760729139604051602001611f159190613490565b60405160208183030381529060405280519060200120826000015183602001518460400151604051602001611f4a9190613490565b60405160208183030381529060405280519060200120856060015186608001518760a00151604051602001611c479796959493929190613615565b6001600160a01b038216611fab5760405162461bcd60e51b815260040161061e906138ac565b6001600160a01b03821660009081526012602052604090205460ff1661203e576001600160a01b0382166000818152601260205260408120805460ff191660019081179091556013805491820181559091527f66de8ffda797e3de9c05e8fc57b3bf0ec28a930d40b0d285d93c06501cf6a09001805473ffffffffffffffffffffffffffffffffffffffff191690911790555b600f54612051908263ffffffff611ac516565b600f556001600160a01b0382166000908152600e602052604090205461207d908263ffffffff611ac516565b6001600160a01b0383166000818152600e60205260408082209390935591519091907fddf252ad1be2c89b69c2b068fc378daa952ba7f163c4a11628f55a4df523b3ef906120cc90859061356b565b60405180910390a35050565b6120e28282611a35565b156120ff5760405162461bcd60e51b815260040161061e9061370c565b6001600160a01b0316600090815260209190915260409020805460ff19166001179055565b600081848411156121485760405162461bcd60e51b815260040161061e91906136bb565b505050900390565b61215a8282611a35565b6121765760405162461bcd60e51b815260040161061e9061380c565b6001600160a01b0316600090815260209190915260409020805460ff19169055565b600061083e83836040518060400160405280601e81526020017f536166654d6174683a207375627472616374696f6e206f766572666c6f770000815250612124565b60405180610c8001604052806064906020820280388339509192915050565b8035610b6481613a4d565b600082601f83011261221557600080fd5b813561222861222382613953565b61392c565b9150818183526020840193506020810190508385602084028201111561224d57600080fd5b60005b83811015612279578161226388826121f9565b8452506020928301929190910190600101612250565b5050505092915050565b600082601f83011261229457600080fd5b81356122a261222382613953565b915081818352602084019350602081019050838560208402820111156122c757600080fd5b60005b8381101561227957816122dd8882612379565b84525060209283019291909101906001016122ca565b600082601f83011261230457600080fd5b813561231261222382613953565b9150818183526020840193506020810190508385602084028201111561233757600080fd5b60005b83811015612279578161234d8882612379565b845250602092830192919091019060010161233a565b8035610b6481613a61565b8051610b6481613a61565b8035610b6481613a6a565b600082601f83011261239557600080fd5b81356123a361222382613974565b915080825260208301602083018583830111156123bf57600080fd5b6123ca8382846139f0565b50505092915050565b6000608082840312156123e557600080fd5b6123ef608061392c565b905060006123fd84846121f9565b825250602082013567ffffffffffffffff81111561241a57600080fd5b612426848285016122f3565b602083015250604082013567ffffffffffffffff81111561244657600080fd5b61245284828501612204565b604083015250606061246684828501612379565b60608301525092915050565b600060c0828403121561248457600080fd5b61248e60c061392c565b9050600061249c84846121f9565b82525060206124ad84848301612379565b602083015250604082013567ffffffffffffffff8111156124cd57600080fd5b6124d984828501612384565b60408301525060606124ed848285016121f9565b606083015250608061250184828501612379565b60808301525060a061251584828501612379565b60a08301525092915050565b600060a0828403121561253357600080fd5b61253d60a061392c565b9050600061254b84846121f9565b825250602061255c84848301612379565b6020830152506040612570848285016121f9565b604083015250606061258484828501612363565b606083015250608061259884828501612379565b60808301525092915050565b6000602082840312156125b657600080fd5b60006125c284846121f9565b949350505050565b60008060008060008060c087890312156125e357600080fd5b60006125ef89896121f9565b965050602061260089828a016121f9565b955050604061261189828a016121f9565b945050606061262289828a01612379565b935050608087013567ffffffffffffffff81111561263f57600080fd5b61264b89828a01612384565b92505060a087013567ffffffffffffffff81111561266857600080fd5b61267489828a01612384565b9150509295509295509295565b60008060006060848603121561269657600080fd5b60006126a286866121f9565b93505060206126b3868287016121f9565b92505060406126c486828701612379565b9150509250925092565b600080604083850312156126e157600080fd5b60006126ed85856121f9565b92505060206126fe85828601612379565b9150509250929050565b60006020828403121561271a57600080fd5b813567ffffffffffffffff81111561273157600080fd5b6125c284828501612283565b60006020828403121561274f57600080fd5b60006125c2848461236e565b60006020828403121561276d57600080fd5b60006125c28484612379565b60008060006060848603121561278e57600080fd5b600061279a8686612379565b93505060206127ab868287016121f9565b925050604084013567ffffffffffffffff8111156127c857600080fd5b6126c486828701612384565b6000602082840312156127e657600080fd5b813567ffffffffffffffff8111156127fd57600080fd5b6125c2848285016123d3565b6000806040838503121561281c57600080fd5b823567ffffffffffffffff81111561283357600080fd5b61283f858286016123d3565b925050602083013567ffffffffffffffff81111561285c57600080fd5b6126fe85828601612384565b60006020828403121561287a57600080fd5b813567ffffffffffffffff81111561289157600080fd5b6125c284828501612472565b600080604083850312156128b057600080fd5b823567ffffffffffffffff8111156128c757600080fd5b61283f85828601612472565b600060a082840312156128e557600080fd5b60006125c28484612521565b60008060c0838503121561290457600080fd5b60006129108585612521565b92505060a083013567ffffffffffffffff81111561285c57600080fd5b6000612939838361295c565b505060200190565b60006129398383612a7a565b612956816139df565b82525050565b612956816139bd565b612956612971826139bd565b613a2c565b61297f816139a5565b61298981846139af565b92506129948261399c565b8060005b838110156129c25781516129ac878261292d565b96506129b78361399f565b925050600101612998565b505050505050565b60006129d5826139ab565b6129df81856139af565b93506129ea8361399f565b8060005b83811015612a18578151612a02888261292d565b9750612a0d8361399f565b9250506001016129ee565b509495945050505050565b6000612a2e826139ab565b612a3881856139af565b9350612a438361399f565b8060005b83811015612a18578151612a5b8882612941565b9750612a668361399f565b925050600101612a47565b612956816139c8565b6129568161399c565b6000612a8e826139ab565b612a9881856139b4565b9350612aa88185602086016139fc565b612ab181613a3d565b9093019392505050565b6000612ac6826139ab565b612ad081856139af565b9350612ae08185602086016139fc565b9290920192915050565b6000612af76021836139b4565b7f4352434c3a206465706f73697420746f20746865207a65726f2061646472657381527f7300000000000000000000000000000000000000000000000000000000000000602082015260400192915050565b6000612b566019836139b4565b7f57726f6e67206c656e677468206f66207369676e617475726500000000000000815260200192915050565b6000612b8f601e836139b4565b7f4352434c3a206163636f756e744c697374206f7574206f662072616e67650000815260200192915050565b6000612bc86014836139b4565b7f5061757361626c653a206e6f7420706175736564000000000000000000000000815260200192915050565b6000612c01601f836139b4565b7f526f6c65733a206163636f756e7420616c72656164792068617320726f6c6500815260200192915050565b6000612c3a6030836139b4565b7f506175736572526f6c653a2063616c6c657220646f6573206e6f74206861766581527f207468652050617573657220726f6c6500000000000000000000000000000000602082015260400192915050565b6000612c99602a836139b4565b7f4352434c3a20776974686472617720616d6f756e74206578636565647320435281527f434c2062616c616e636500000000000000000000000000000000000000000000602082015260400192915050565b6000612cf86015836139b4565b7f494e56414c49445f4e45575f54494d455354414d500000000000000000000000815260200192915050565b6000612d316020836139b4565b7f4352434c3a20494e56414c49445f5452414e534645525f5349474e4154555245815260200192915050565b6000612d6a601a836139b4565b7f4352434c3a20666f726365207769746864726177206572726f72000000000000815260200192915050565b6000612da3601b836139b4565b7f536166654d6174683a206164646974696f6e206f766572666c6f770000000000815260200192915050565b6000612ddc6017836139b4565b7f494e56414c49445f46494e49534845445f535441545553000000000000000000815260200192915050565b6000612e156023836139b4565b7f4352434c3a206465706f7369742066726f6d20746865204352434c206164647281527f6573730000000000000000000000000000000000000000000000000000000000602082015260400192915050565b6000612e746011836139b4565b7f494e56414c49445f54494d455354414d50000000000000000000000000000000815260200192915050565b6000612ead601a836139b4565b7f494e56414c49445f57495448445241575f5349474e4154555245000000000000815260200192915050565b6000612ee6601c836139b4565b7f4352434c3a20616d6f756e74206c656e677468206d69736d6174636800000000815260200192915050565b6000612f1f6024836139b4565b7f4352434c3a207472616e736665722066726f6d20746865207a65726f2061646481527f7265737300000000000000000000000000000000000000000000000000000000602082015260400192915050565b6000612f7e6010836139b4565b7f5061757361626c653a2070617573656400000000000000000000000000000000815260200192915050565b6000612fb76022836139b4565b7f4352434c3a207472616e7366657220746f20746865207a65726f206164647265815261737360f01b602082015260400192915050565b6000612ffb6014836139b4565b7f57726f6e67207369676e65722061646472657373000000000000000000000000815260200192915050565b60006130346021836139b4565b7f526f6c65733a206163636f756e7420646f6573206e6f74206861766520726f6c81527f6500000000000000000000000000000000000000000000000000000000000000602082015260400192915050565b60006130936020836139b4565b7f4352434c3a206275726e2066726f6d20746865207a65726f2061646472657373815260200192915050565b60006130cc600c836139b4565b7f57726f6e67206c656e6774680000000000000000000000000000000000000000815260200192915050565b60006131056022836139b4565b7f526f6c65733a206163636f756e7420697320746865207a65726f206164647265815261737360f01b602082015260400192915050565b60006131496040836139b4565b7f57686974656c69737441646d696e526f6c653a2063616c6c657220646f65732081527f6e6f742068617665207468652057686974656c69737441646d696e20726f6c65602082015260400192915050565b60006131a86015836139b4565b7f4352434c3a207265717565737420657870697265640000000000000000000000815260200192915050565b60006131e16019836139b4565b7f4352434c3a206465706f736974206e6f7420746f204352434c00000000000000815260200192915050565b600061321a6007836139b4565b7f57726f6e67205600000000000000000000000000000000000000000000000000815260200192915050565b6000613253603a836139b4565b7f57686974656c6973746564526f6c653a2063616c6c657220646f6573206e6f7481527f2068617665207468652057686974656c697374656420726f6c65000000000000602082015260400192915050565b60006132b2601c836139b4565b7f464f5243455f57495448445241575f4e4f545f52455155455354454400000000815260200192915050565b60006132eb601e836139b4565b7f4352434c3a206d696e7420746f20746865207a65726f20616464726573730000815260200192915050565b6000613324601c836139b4565b7f4352434c3a206465706f736974206e6f7420617574686f72697a656400000000815260200192915050565b600061335d6014836139b4565b7f54494d455f4c4f434b5f494e434f4d504c455445000000000000000000000000815260200192915050565b60006133966014836139b4565b7f4352434c3a207769746864726177206572726f72000000000000000000000000815260200192915050565b60006133cf601f836139b4565b7f4352434c3a207472616e7366657220666f72207a65726f206164647265737300815260200192915050565b60006134086024836139b4565b7f4352434c3a2073686f756c642063616c6c20776974686472617743726f73734381527f6861696e00000000000000000000000000000000000000000000000000000000602082015260400192915050565b612956816139d9565b600061346f8284612965565b50601401919050565b600061083e82846129ca565b600061083e8284612a23565b600061083e8284612abb565b60208101610b64828461295c565b60208101610b64828461294d565b606081016134c6828661294d565b6134d3602083018561295c565b6125c26040830184612a7a565b604081016134ee828561295c565b61083e6020830184612a7a565b60a08101613509828861295c565b6135166020830187612a7a565b6135236040830186612a7a565b81810360608301526135358185612a83565b9050613544608083018461295c565b9695505050505050565b610c808101610b648284612976565b60208101610b648284612a71565b60208101610b648284612a7a565b60a081016135878288612a7a565b613594602083018761295c565b6135a16040830186612a7a565b6135ae6060830185612a7a565b6135446080830184612a7a565b60c081016135c98289612a7a565b6135d6602083018861295c565b6135e36040830187612a7a565b6135f0606083018661295c565b6135fd6080830185612a71565b61360a60a0830184612a7a565b979650505050505050565b60e08101613623828a612a7a565b613630602083018961295c565b61363d6040830188612a7a565b61364a6060830187612a7a565b613657608083018661295c565b61366460a0830185612a7a565b61367160c0830184612a7a565b98975050505050505050565b6080810161368b8287612a7a565b613698602083018661345a565b6136a56040830185612a7a565b6136b26060830184612a7a565b95945050505050565b6020808252810161083e8184612a83565b60208082528101610b6481612aea565b60208082528101610b6481612b49565b60208082528101610b6481612b82565b60208082528101610b6481612bbb565b60208082528101610b6481612bf4565b60208082528101610b6481612c2d565b60208082528101610b6481612c8c565b60208082528101610b6481612ceb565b60208082528101610b6481612d24565b60208082528101610b6481612d5d565b60208082528101610b6481612d96565b60208082528101610b6481612dcf565b60208082528101610b6481612e08565b60208082528101610b6481612e67565b60208082528101610b6481612ea0565b60208082528101610b6481612ed9565b60208082528101610b6481612f12565b60208082528101610b6481612f71565b60208082528101610b6481612faa565b60208082528101610b6481612fee565b60208082528101610b6481613027565b60208082528101610b6481613086565b60208082528101610b64816130bf565b60208082528101610b64816130f8565b60208082528101610b648161313c565b60208082528101610b648161319b565b60208082528101610b64816131d4565b60208082528101610b648161320d565b60208082528101610b6481613246565b60208082528101610b64816132a5565b60208082528101610b64816132de565b60208082528101610b6481613317565b60208082528101610b6481613350565b60208082528101610b6481613389565b60208082528101610b64816133c2565b60208082528101610b64816133fb565b6040810161391a8285612a7a565b81810360208301526125c28184612a83565b60405181810167ffffffffffffffff8111828210171561394b57600080fd5b604052919050565b600067ffffffffffffffff82111561396a57600080fd5b5060209081020190565b600067ffffffffffffffff82111561398b57600080fd5b506020601f91909101601f19160190565b90565b60200190565b50606490565b5190565b919050565b90815260200190565b6000610b64826139cd565b151590565b6001600160a01b031690565b60ff1690565b6000610b64826000610b64826139bd565b82818337506000910152565b60005b83811015613a175781810151838201526020016139ff565b83811115613a26576000848401525b50505050565b6000610b64826000610b6482613a47565b601f01601f191690565b60601b90565b613a56816139bd565b811461077757600080fd5b613a56816139c8565b613a568161399c56fe5472616e736665725265717565737428616464726573732075736572416464726573732c75696e743235365b5d20616d6f756e74732c616464726573735b5d20726563697069656e74732c75696e74323536206e6f6e6365294352434c3a206275726e20616d6f756e7420657863656564732062616c616e63654352434c3a207472616e7366657220616d6f756e742065786365656473206c6f636b65642062616c616e636557697468647261775265717565737428616464726573732075736572416464726573732c75696e7432353620616d6f756e742c6164647265737320726563697069656e742c626f6f6c206275726e2c75696e74323536206e6f6e63652957697468647261775265717565737428616464726573732075736572416464726573732c75696e7432353620616d6f756e742c737472696e6720726563697069656e742c61646472657373206465666952656c617965722c75696e74323536206665652c75696e74323536206e6f6e636529a365627a7a723158205f67bee99d3cbe2eb789e5eb666d5e9888902840cba464788b41e8246a47bc006c6578706572696d656e74616cf564736f6c63430005100040",
  "source": "pragma solidity 0.5.16;\npragma experimental ABIEncoderV2;\n\nimport \"./ICRCL.sol\";\nimport \"./TimeLock.sol\";\nimport \"../ERC777/IWrappedCfx.sol\";\n\nimport \"@openzeppelin/contracts/access/roles/WhitelistAdminRole.sol\";\nimport \"@openzeppelin/contracts/access/roles/WhitelistedRole.sol\";\nimport \"@openzeppelin/contracts/token/ERC20/IERC20.sol\";\nimport \"@openzeppelin/contracts/token/ERC777/IERC777Recipient.sol\";\nimport \"@openzeppelin/contracts/introspection/IERC1820Registry.sol\";\nimport \"@openzeppelin/contracts/lifecycle/Pausable.sol\";\n\n/* Remix IDE\nimport \"github.com/OpenZeppelin/openzeppelin-contracts/blob/v2.5.0/contracts/access/roles/WhitelistAdminRole.sol\";\nimport \"github.com/OpenZeppelin/openzeppelin-contracts/blob/v2.5.0/contracts/access/roles/WhitelistedRole.sol\";\nimport \"github.com/OpenZeppelin/openzeppelin-contracts/blob/v2.5.0/contracts/token/ERC20/IERC20.sol\";\nimport \"github.com/OpenZeppelin/openzeppelin-contracts/blob/v2.5.0/contracts/token/ERC777/IERC777Recipient.sol\";\nimport \"github.com/OpenZeppelin/openzeppelin-contracts/blob/v2.5.0/contracts/introspection/IERC1820Registry.sol\";\nimport \"github.com/OpenZeppelin/openzeppelin-contracts/blob/v2.5.0/contracts/lifecycle/Pausable.sol\";\n*/\n\nimport \"../ERC777/ITokenBase.sol\";\n\nimport \"./libs/LibEIP712.sol\";\nimport \"./libs/LibRequest.sol\";\nimport \"../boomflow/libs/LibSignatureValidator.sol\";\n\ncontract CRCL is ICRCL, WhitelistAdminRole, WhitelistedRole, TimeLock, IERC777Recipient, LibSignatureValidator, LibRequest, Pausable {\n    using SafeMath for uint256;\n\n    string _name;\n    bool _isCFX;\n    string _symbol;\n    uint256 _decimals;\n\n    address _tokenAddr;\n\n    mapping (address => uint256) private _balances;\n\n    uint256 private _totalSupply;\n\n    // Mapping of requestHash => timestamp; request hash only shows\n    // up if it is completed\n    mapping (bytes32 => uint256) public timestamps;\n\n    // Current min timestamp for valid requests\n    uint256 public timestamp = 0;\n\n    //0x1820a4B7618BdE71Dce8cdc73aAB6C95905faD24\n    //0x88887eD889e776bCBe2f0f9932EcFaBcDfCd1820\n    IERC1820Registry constant private ERC1820_REGISTRY = IERC1820Registry(address(0x1820a4B7618BdE71Dce8cdc73aAB6C95905faD24));\n\n    mapping (address => bool) private _accountCheck;\n    address[] private _accountList;\n\n    constructor (string memory name, string memory symbol, uint8 decimals, address tokenAddr, uint256 deferTime, bool isCFX)\n        TimeLock(deferTime) public {\n        _name = name;\n        _symbol = symbol;\n        _decimals = decimals;\n        _tokenAddr = tokenAddr;\n        _isCFX = isCFX;\n\n        ERC1820_REGISTRY.setInterfaceImplementer(address(this), keccak256(\"ERC777TokensRecipient\"), address(this));\n    }\n\n    function name() public view returns (string memory) {\n        return _name;\n    }\n\n    function symbol() public view returns (string memory) {\n        return _symbol;\n    }\n\n    function decimals() public view returns (uint256) {\n        return _decimals;\n    }\n\n    function totalSupply() public view returns (uint256) {\n        return _totalSupply;\n    }\n\n    function balanceOf(address account) public view returns (uint256) {\n        return _balances[account];\n    }\n\n    function getTokenAddress() public view returns (address) {\n        return _tokenAddr;\n    }\n\n    function setTokenAddress(address tokenAddr) public onlyWhitelistAdmin returns (bool) {\n        _tokenAddr = tokenAddr;\n        return true;\n    }\n\n    function accountTotal() public view returns (uint256) {\n        return _accountList.length;\n    }\n\n    function accountList(uint256 begin) public view returns (address[100] memory) {\n        require(begin >= 0 && begin < _accountList.length, \"CRCL: accountList out of range\");\n        address[100] memory res;\n        uint256 range = _min(_accountList.length, begin.add(100));\n        for (uint256 i = begin; i < range; i++) {\n            res[i-begin] = _accountList[i];\n        }\n        return res;\n    }\n\n    //----------------- Storage Optimization ---------------\n    function getTimestamp() public view returns (uint256) {\n        return timestamp;\n    }\n\n    function setTimestamp(uint256 newTimestamp)\n        public\n        onlyWhitelistAdmin\n    {\n        require(newTimestamp > timestamp, \"INVALID_NEW_TIMESTAMP\");\n        timestamp = newTimestamp;\n    }\n\n    function removeObsoleteData(bytes32[] memory hashes)\n        public\n        onlyWhitelistAdmin\n    {\n        for (uint i = 0; i < hashes.length; i++) {\n            // Request hash is finished\n            require(timestamps[hashes[i]] != 0, \"INVALID_FINISHED_STATUS\");\n\n            // Request timestamp is lower than current timestamp\n            require(timestamps[hashes[i]] < timestamp, \"INVALID_TIMESTAMP\");\n\n            // Remove requst data\n            removeData(hashes[i]);\n        }\n    }\n\n    function removeData(bytes32 requestHash) internal {\n        if (timestamps[requestHash] != 0) delete timestamps[requestHash];\n    }\n    //----------------- End Storage Optimization -----------\n\n    /**\n     * Transfer the amount of token from sender to recipient.\n     * Only WhitelistedRoles (WhitelistAdmin, Boomflow) have the access permission.\n     * Emits an {Transfer} event indicating the amount transferred.\n     *\n     * Requirements:\n     * - `sender` and `recipient` cannot be the zero address.\n     * - `sender` must have a balance of at least `amount`.\n     */\n    function transferFrom(address sender, address recipient, uint256 amount) public onlyWhitelisted whenNotPaused returns (bool) {\n        require(sender != address(0), \"CRCL: transfer from the zero address\");\n        require(recipient != address(0), \"CRCL: transfer to the zero address\");\n\n        _transfer(sender, recipient, amount);\n\n        return true;\n    }\n\n    /**\n     * Transfer tokens from one sender to a list of recipients according to a list of amounts.\n     * Only WhitelistAdmin have the access permission.\n     * Emits an {Transfer} event indicating the amount transferred.\n     *\n     * Requirements:\n     * - `request.userAddress` cannot be zero address.\n     * - `request.amounts` and `request.recipients` must have the same length.\n     */\n    function transferFor(TransferRequest memory request, bytes memory signature) public onlyWhitelistAdmin whenNotPaused returns (bool) {\n        require(request.userAddress != address(0), \"CRCL: transfer for zero address\");\n        require(request.amounts.length == request.recipients.length, \"CRCL: amount length mismatch\");\n\n        bytes32 requestHash = getTransferRequestHash(request);\n        require(isValidSignature(requestHash,request.userAddress,signature), \"CRCL: INVALID_TRANSFER_SIGNATURE\");\n\n        // Validate timestamp\n        require(request.nonce >= timestamp, \"CRCL: request expired\");\n        timestamps[requestHash] = request.nonce;\n\n        for(uint i = 0; i < request.recipients.length; i++){\n            _transfer(request.userAddress, request.recipients[i], request.amounts[i]);\n        }\n\n        return true;\n    }\n\n    // Implement ERC777Recipient interface\n    function tokensReceived(\n        address,\n        address from,\n        address to,\n        uint256 amount,\n        bytes memory userData,\n        bytes memory\n    )\n        public\n        whenNotPaused\n    {\n        require(_msgSender() == _tokenAddr, \"CRCL: deposit not authorized\");\n        require(to == address(this), \"CRCL: deposit not to CRCL\");\n\n        // Recover the recipient address\n        address addr = address(0);\n        assembly {\n            addr := mload(add(userData,20))\n        }\n        if (addr != address(0)) {\n            _deposit(from, addr, amount);\n        }\n    }\n\n    function deposit(address to, uint256 amount) public whenNotPaused {\n        IERC20(_tokenAddr).transferFrom(msg.sender, address(this), amount);\n        _deposit(msg.sender, to, amount);\n    }\n\n    /**\n     * Withdraw the amount of token from sender's CRCL to recipient's ERC777 asset.\n     * Only WhitelistAdmin (DEX) have the access permission.\n     * The function will atomically perform the following operations:\n     *\n     *      1. Validate the user signature\n     *      2. Burn `request.amount` of CRCL token from `request.userAddress`\n     *      3. Transfer equal amount of ERC777 token from the contract address to `request.recipient`\n     *\n     * The ERC777 token emits a {Transfer} event indicating the amount transferred.\n     * The CRCL token emits a {Withdraw} event indicating the amount withdrawn.\n     *\n     * Requirements:\n     * - The request hash has to be unique.\n     * - The `request.isCrosschain` is False.\n     */\n    function withdraw(WithdrawRequest memory request, bytes memory signature) public onlyWhitelistAdmin whenNotPaused returns (bool) {\n        // Validate the user signature\n        bytes32 requestHash = getRequestHash(request);\n        require(isValidSignature(requestHash,request.userAddress,signature), \"INVALID_WITHDRAW_SIGNATURE\");\n\n        // Validate timestamp\n        require(request.nonce >= timestamp, \"CRCL: request expired\");\n        timestamps[requestHash] = request.nonce;\n\n        // unless for DEX-CFX in which case isCrosschain == true will\n        // withdraw directly to CFX instead of WCFX.\n        require(!request.burn || _isCFX, \"CRCL: should call withdrawCrossChain\");\n\n        // Special handling to withdraw WCFX => CFX\n        if (request.burn) {\n            // Burn the `request.amount` of WCFX from the current CRCL address, and receive CFX\n            IWrappedCfx(_tokenAddr).burn(request.amount, abi.encodePacked(request.recipient));\n\n            // Burn the `request.amount` of CRCL from the `request.userAddress`\n            require(_burn(request.userAddress, request.amount), \"CRCL: withdraw amount exceeds CRCL balance\");\n            return true;\n        }\n\n        // Withdraw the `request.amount` of CRCL\n        require(_withdraw(request.userAddress, request.recipient, request.amount), \"CRCL: withdraw error\");\n        return true;\n    }\n\n    /**\n     * Withdraw the amount of token from sender's CRCL to recipient's crosschain asset.\n     * Only WhitelistAdmin (DEX) have the access permission.\n     * The function will atomically perform the following operations:\n     *\n     *      1. Validate the user signature\n     *      2. Burn `request.amount` of CRCL token from `request.userAddress`\n     *      3. Burn equal amount of ERC777 token from the contract address\n     *\n     * Note that For the full-fledged crosschain withdraw, we are depending\n     * on Custodian counterparts to perform the actual crosschain operations\n     *\n     * The ERC777 token emits a {Burned} event indicating the amount withdrawn.\n     * The CRCL token emits a {Transfer} to null address event indicating the amount withdrawn.\n     *\n     * Requirements:\n     * - The request hash has to be unique.\n     * - The `request.isCrosschain` is True.\n     */\n    function withdrawCrossChain(WithdrawCrossChainRequest memory request, bytes memory signature) public onlyWhitelistAdmin whenNotPaused returns (bool) {\n        // Validate the user signature\n        bytes32 requestHash = getWithdrawCrossChainRequestHash(request);\n        require(isValidSignature(requestHash,request.userAddress,signature), \"INVALID_WITHDRAW_SIGNATURE\");\n\n        // Validate timestamp\n        require(request.nonce >= timestamp, \"CRCL: request expired\");\n        timestamps[requestHash] = request.nonce;\n\n        // Burn the `request.amount` of ERC777 from the current CRCL address\n        ITokenBase(_tokenAddr).burn(request.userAddress, request.amount, request.fee, request.recipient, request.defiRelayer);\n\n        // Burn the `request.amount` of CRCL from the `request.userAddress`\n        require(_burn(request.userAddress, request.amount), \"CRCL: withdraw amount exceeds CRCL balance\");\n\n        return true;\n    }\n\n    /**\n     * Request for a force withdraw of all sender's CRCL token.\n     * The function acknowledges the request and records the request time.\n     *\n     * Emits a {ScheduleWithdraw} event indicating the withdraw has been scheduled.\n     */\n    function requestForceWithdraw() public returns (bool) {\n        setScheduleTime(_msgSender(), block.timestamp);\n        return true;\n    }\n\n    /**\n     * Force withdraw all msg.sender's CRCL token to recipient's ERC20 token.\n     * The function acknowledges the request and records the request time.\n     *\n     * Emits a {Withdraw} event indicating the amount withdrawn.\n     */\n    function forceWithdraw(address recipient) public withdrawRequested pastTimeLock returns (bool) {\n        require(_withdraw(_msgSender(), recipient, _balances[_msgSender()]), \"CRCL: force withdraw error\");\n\n        setScheduleTime(_msgSender(), 0);\n\n        return true;\n    }\n\n    /**\n     * Pause the majority of functionalities of CRCL.\n     * Only WhitelistAdmin (DEX) have the access permission.\n     *\n     * Note that `requestForceWithdraw` and `forceWithdraw` is not subject to pause\n     */\n    function Pause()\n        public\n        onlyWhitelistAdmin\n    {\n        pause();\n    }\n\n    /**\n     * Resume all paused functionalities of Boomflow.\n     * Only WhitelistAdmin (DEX) have the access permission.\n     */\n    function Resume()\n        public\n        onlyWhitelistAdmin\n    {\n        unpause();\n    }\n\n    //Helper Functions\n    function _transfer(address sender, address recipient, uint256 amount) internal returns (bool) {\n        if (!_accountCheck[recipient]) {\n            _accountCheck[recipient] = true;\n            _accountList.push(recipient);\n        }\n\n        _balances[sender] = _balances[sender].sub(amount, \"CRCL: transfer amount exceeds locked balance\");\n        _balances[recipient] = _balances[recipient].add(amount);\n        emit Transfer(sender, recipient, amount);\n\n        return true;\n    }\n\n    function _mint(address account, uint256 amount) internal {\n        require(account != address(0), \"CRCL: mint to the zero address\");\n\n        if (!_accountCheck[account]) {\n            _accountCheck[account] = true;\n            _accountList.push(account);\n        }\n\n        _totalSupply = _totalSupply.add(amount);\n        _balances[account] = _balances[account].add(amount);\n        emit Transfer(address(0), account, amount);\n    }\n\n    function _burn(address account, uint256 amount) internal returns (bool) {\n        require(account != address(0), \"CRCL: burn from the zero address\");\n\n        _balances[account] = _balances[account].sub(amount, \"CRCL: burn amount exceeds balance\");\n        _totalSupply = _totalSupply.sub(amount);\n        emit Transfer(account, address(0), amount);\n\n        return true;\n    }\n\n    function _deposit(address sender, address recipient, uint256 amount) internal {\n        require(recipient != address(0), \"CRCL: deposit to the zero address\");\n        require(sender != address(this), \"CRCL: deposit from the CRCL address\");\n\n        _mint(recipient, amount);\n\n        emit Deposit(sender, recipient, amount);\n    }\n\n    function _withdraw(address sender, address recipient, uint256 amount) internal returns (bool) {\n        require(_burn(sender, amount), \"CRCL: withdraw amount exceeds CRCL balance\");\n        IERC20(_tokenAddr).transfer(recipient, amount);\n        emit Withdraw(sender, recipient, amount);\n\n        return true;\n    }\n\n    function _min(uint256 value1, uint256 value2) internal pure returns (uint256) {\n        if (value1 > value2) {\n            return value2;\n        }\n        return value1;\n    }\n}\n",
  "sourcePath": "/Users/kang/work/nft-dex/boomflow-contract/contracts/crc-l/CRCL.sol",
  "compiler": {
    "name": "solc",
    "version": "0.5.16+commit.9c3226ce.Emscripten.clang"
  },
  "schemaVersion": "3.0.23",
  "updatedAt": "2023-06-12T09:38:35.688Z",
  "devdoc": {
    "methods": {
      "getRequestHash((address,uint256,address,bool,uint256))": {
        "details": "Calculates Keccak-256 hash of the withdraw request.",
        "params": {
          "request": "The request structure."
        },
        "return": "Keccak-256 EIP712 hash of the withdraw request."
      },
      "getTransferRequestHash((address,uint256[],address[],uint256))": {
        "details": "Calculates Keccak-256 hash of the transfer request.",
        "params": {
          "request": "The request structure."
        },
        "return": "Keccak-256 EIP712 hash of the transfer request."
      },
      "getWithdrawCrossChainRequestHash((address,uint256,string,address,uint256,uint256))": {
        "details": "Calculates Keccak-256 hash of the crosschain withdraw request.",
        "params": {
          "request": "The request structure."
        },
        "return": "Keccak-256 EIP712 hash of the crosschain withdraw request."
      },
      "pause()": {
        "details": "Called by a pauser to pause, triggers stopped state."
      },
      "paused()": {
        "details": "Returns true if the contract is paused, and false otherwise."
      },
      "unpause()": {
        "details": "Called by a pauser to unpause, returns to normal state."
      }
    }
  },
  "userdoc": {
    "methods": {
      "Pause()": {
        "notice": "Pause the majority of functionalities of CRCL. Only WhitelistAdmin (DEX) have the access permission.     * Note that `requestForceWithdraw` and `forceWithdraw` is not subject to pause"
      },
      "Resume()": {
        "notice": "Resume all paused functionalities of Boomflow. Only WhitelistAdmin (DEX) have the access permission."
      },
      "forceWithdraw(address)": {
        "notice": "Force withdraw all msg.sender's CRCL token to recipient's ERC20 token. The function acknowledges the request and records the request time.     * Emits a {Withdraw} event indicating the amount withdrawn."
      },
      "requestForceWithdraw()": {
        "notice": "Request for a force withdraw of all sender's CRCL token. The function acknowledges the request and records the request time.     * Emits a {ScheduleWithdraw} event indicating the withdraw has been scheduled."
      },
      "transferFor((address,uint256[],address[],uint256),bytes)": {
        "notice": "Transfer tokens from one sender to a list of recipients according to a list of amounts. Only WhitelistAdmin have the access permission. Emits an {Transfer} event indicating the amount transferred.     * Requirements: - `request.userAddress` cannot be zero address. - `request.amounts` and `request.recipients` must have the same length."
      },
      "transferFrom(address,address,uint256)": {
        "notice": "Transfer the amount of token from sender to recipient. Only WhitelistedRoles (WhitelistAdmin, Boomflow) have the access permission. Emits an {Transfer} event indicating the amount transferred.     * Requirements: - `sender` and `recipient` cannot be the zero address. - `sender` must have a balance of at least `amount`."
      },
      "withdraw((address,uint256,address,bool,uint256),bytes)": {
        "notice": "Withdraw the amount of token from sender's CRCL to recipient's ERC777 asset. Only WhitelistAdmin (DEX) have the access permission. The function will atomically perform the following operations:     *      1. Validate the user signature     2. Burn `request.amount` of CRCL token from `request.userAddress`     3. Transfer equal amount of ERC777 token from the contract address to `request.recipient`     * The ERC777 token emits a {Transfer} event indicating the amount transferred. The CRCL token emits a {Withdraw} event indicating the amount withdrawn.     * Requirements: - The request hash has to be unique. - The `request.isCrosschain` is False."
      },
      "withdrawCrossChain((address,uint256,string,address,uint256,uint256),bytes)": {
        "notice": "Withdraw the amount of token from sender's CRCL to recipient's crosschain asset. Only WhitelistAdmin (DEX) have the access permission. The function will atomically perform the following operations:     *      1. Validate the user signature     2. Burn `request.amount` of CRCL token from `request.userAddress`     3. Burn equal amount of ERC777 token from the contract address     * Note that For the full-fledged crosschain withdraw, we are depending on Custodian counterparts to perform the actual crosschain operations     * The ERC777 token emits a {Burned} event indicating the amount withdrawn. The CRCL token emits a {Transfer} to null address event indicating the amount withdrawn.     * Requirements: - The request hash has to be unique. - The `request.isCrosschain` is True."
      }
    }
  }
}