{
  "contractName": "TokenBase",
  "abi": [
    {
      "inputs": [
        {
          "internalType": "string",
          "name": "name",
          "type": "string"
        },
        {
          "internalType": "string",
          "name": "symbol",
          "type": "string"
        },
        {
          "internalType": "address[]",
          "name": "defaultOperators",
          "type": "address[]"
        }
      ],
      "payable": false,
      "stateMutability": "nonpayable",
      "type": "constructor"
    },
    {
      "anonymous": false,
      "inputs": [
        {
          "indexed": true,
          "internalType": "address",
          "name": "owner",
          "type": "address"
        },
        {
          "indexed": true,
          "internalType": "address",
          "name": "spender",
          "type": "address"
        },
        {
          "indexed": false,
          "internalType": "uint256",
          "name": "value",
          "type": "uint256"
        }
      ],
      "name": "Approval",
      "type": "event"
    },
    {
      "anonymous": false,
      "inputs": [
        {
          "indexed": true,
          "internalType": "address",
          "name": "operator",
          "type": "address"
        },
        {
          "indexed": true,
          "internalType": "address",
          "name": "tokenHolder",
          "type": "address"
        }
      ],
      "name": "AuthorizedOperator",
      "type": "event"
    },
    {
      "anonymous": false,
      "inputs": [
        {
          "indexed": true,
          "internalType": "address",
          "name": "operator",
          "type": "address"
        },
        {
          "indexed": true,
          "internalType": "address",
          "name": "from",
          "type": "address"
        },
        {
          "indexed": false,
          "internalType": "uint256",
          "name": "amount",
          "type": "uint256"
        },
        {
          "indexed": false,
          "internalType": "bytes",
          "name": "data",
          "type": "bytes"
        },
        {
          "indexed": false,
          "internalType": "bytes",
          "name": "operatorData",
          "type": "bytes"
        }
      ],
      "name": "Burned",
      "type": "event"
    },
    {
      "anonymous": false,
      "inputs": [
        {
          "indexed": true,
          "internalType": "uint256",
          "name": "amount",
          "type": "uint256"
        },
        {
          "indexed": false,
          "internalType": "string",
          "name": "toAddress",
          "type": "string"
        },
        {
          "indexed": true,
          "internalType": "address",
          "name": "fromAddress",
          "type": "address"
        },
        {
          "indexed": false,
          "internalType": "address",
          "name": "defi_relayer",
          "type": "address"
        }
      ],
      "name": "Burnt",
      "type": "event"
    },
    {
      "anonymous": false,
      "inputs": [
        {
          "indexed": true,
          "internalType": "address",
          "name": "toAddress",
          "type": "address"
        },
        {
          "indexed": true,
          "internalType": "uint256",
          "name": "amount",
          "type": "uint256"
        },
        {
          "indexed": false,
          "internalType": "string",
          "name": "defi",
          "type": "string"
        },
        {
          "indexed": false,
          "internalType": "string",
          "name": "tx_id",
          "type": "string"
        }
      ],
      "name": "Minted",
      "type": "event"
    },
    {
      "anonymous": false,
      "inputs": [
        {
          "indexed": true,
          "internalType": "address",
          "name": "operator",
          "type": "address"
        },
        {
          "indexed": true,
          "internalType": "address",
          "name": "to",
          "type": "address"
        },
        {
          "indexed": false,
          "internalType": "uint256",
          "name": "amount",
          "type": "uint256"
        },
        {
          "indexed": false,
          "internalType": "bytes",
          "name": "data",
          "type": "bytes"
        },
        {
          "indexed": false,
          "internalType": "bytes",
          "name": "operatorData",
          "type": "bytes"
        }
      ],
      "name": "Minted",
      "type": "event"
    },
    {
      "anonymous": false,
      "inputs": [
        {
          "indexed": true,
          "internalType": "address",
          "name": "previousOwner",
          "type": "address"
        },
        {
          "indexed": true,
          "internalType": "address",
          "name": "newOwner",
          "type": "address"
        }
      ],
      "name": "OwnershipTransferred",
      "type": "event"
    },
    {
      "anonymous": false,
      "inputs": [
        {
          "indexed": false,
          "internalType": "address",
          "name": "account",
          "type": "address"
        }
      ],
      "name": "Paused",
      "type": "event"
    },
    {
      "anonymous": false,
      "inputs": [
        {
          "indexed": true,
          "internalType": "address",
          "name": "account",
          "type": "address"
        }
      ],
      "name": "PauserAdded",
      "type": "event"
    },
    {
      "anonymous": false,
      "inputs": [
        {
          "indexed": true,
          "internalType": "address",
          "name": "account",
          "type": "address"
        }
      ],
      "name": "PauserRemoved",
      "type": "event"
    },
    {
      "anonymous": false,
      "inputs": [
        {
          "indexed": true,
          "internalType": "address",
          "name": "operator",
          "type": "address"
        },
        {
          "indexed": true,
          "internalType": "address",
          "name": "tokenHolder",
          "type": "address"
        }
      ],
      "name": "RevokedOperator",
      "type": "event"
    },
    {
      "anonymous": false,
      "inputs": [
        {
          "indexed": true,
          "internalType": "address",
          "name": "operator",
          "type": "address"
        },
        {
          "indexed": true,
          "internalType": "address",
          "name": "from",
          "type": "address"
        },
        {
          "indexed": true,
          "internalType": "address",
          "name": "to",
          "type": "address"
        },
        {
          "indexed": false,
          "internalType": "uint256",
          "name": "amount",
          "type": "uint256"
        },
        {
          "indexed": false,
          "internalType": "bytes",
          "name": "data",
          "type": "bytes"
        },
        {
          "indexed": false,
          "internalType": "bytes",
          "name": "operatorData",
          "type": "bytes"
        }
      ],
      "name": "Sent",
      "type": "event"
    },
    {
      "anonymous": false,
      "inputs": [
        {
          "indexed": true,
          "internalType": "address",
          "name": "from",
          "type": "address"
        },
        {
          "indexed": true,
          "internalType": "address",
          "name": "to",
          "type": "address"
        },
        {
          "indexed": false,
          "internalType": "uint256",
          "name": "value",
          "type": "uint256"
        }
      ],
      "name": "Transfer",
      "type": "event"
    },
    {
      "anonymous": false,
      "inputs": [
        {
          "indexed": false,
          "internalType": "address",
          "name": "account",
          "type": "address"
        }
      ],
      "name": "Unpaused",
      "type": "event"
    },
    {
      "constant": true,
      "inputs": [
        {
          "internalType": "uint256",
          "name": "",
          "type": "uint256"
        }
      ],
      "name": "_account_list",
      "outputs": [
        {
          "internalType": "address",
          "name": "",
          "type": "address"
        }
      ],
      "payable": false,
      "stateMutability": "view",
      "type": "function"
    },
    {
      "constant": true,
      "inputs": [],
      "name": "_creator",
      "outputs": [
        {
          "internalType": "address",
          "name": "",
          "type": "address"
        }
      ],
      "payable": false,
      "stateMutability": "view",
      "type": "function"
    },
    {
      "constant": false,
      "inputs": [],
      "name": "accountCount",
      "outputs": [
        {
          "internalType": "uint256",
          "name": "",
          "type": "uint256"
        }
      ],
      "payable": false,
      "stateMutability": "nonpayable",
      "type": "function"
    },
    {
      "constant": false,
      "inputs": [
        {
          "internalType": "address",
          "name": "account",
          "type": "address"
        }
      ],
      "name": "addAccount",
      "outputs": [],
      "payable": false,
      "stateMutability": "nonpayable",
      "type": "function"
    },
    {
      "constant": false,
      "inputs": [
        {
          "internalType": "address",
          "name": "account",
          "type": "address"
        }
      ],
      "name": "addPauser",
      "outputs": [],
      "payable": false,
      "stateMutability": "nonpayable",
      "type": "function"
    },
    {
      "constant": true,
      "inputs": [
        {
          "internalType": "address",
          "name": "holder",
          "type": "address"
        },
        {
          "internalType": "address",
          "name": "spender",
          "type": "address"
        }
      ],
      "name": "allowance",
      "outputs": [
        {
          "internalType": "uint256",
          "name": "",
          "type": "uint256"
        }
      ],
      "payable": false,
      "stateMutability": "view",
      "type": "function"
    },
    {
      "constant": false,
      "inputs": [
        {
          "internalType": "address",
          "name": "spender",
          "type": "address"
        },
        {
          "internalType": "uint256",
          "name": "value",
          "type": "uint256"
        }
      ],
      "name": "approve",
      "outputs": [
        {
          "internalType": "bool",
          "name": "",
          "type": "bool"
        }
      ],
      "payable": false,
      "stateMutability": "nonpayable",
      "type": "function"
    },
    {
      "constant": false,
      "inputs": [
        {
          "internalType": "address",
          "name": "operator",
          "type": "address"
        }
      ],
      "name": "authorizeOperator",
      "outputs": [],
      "payable": false,
      "stateMutability": "nonpayable",
      "type": "function"
    },
    {
      "constant": true,
      "inputs": [
        {
          "internalType": "address",
          "name": "tokenHolder",
          "type": "address"
        }
      ],
      "name": "balanceOf",
      "outputs": [
        {
          "internalType": "uint256",
          "name": "",
          "type": "uint256"
        }
      ],
      "payable": false,
      "stateMutability": "view",
      "type": "function"
    },
    {
      "constant": true,
      "inputs": [],
      "name": "decimals",
      "outputs": [
        {
          "internalType": "uint8",
          "name": "",
          "type": "uint8"
        }
      ],
      "payable": false,
      "stateMutability": "pure",
      "type": "function"
    },
    {
      "constant": true,
      "inputs": [],
      "name": "defaultOperators",
      "outputs": [
        {
          "internalType": "address[]",
          "name": "",
          "type": "address[]"
        }
      ],
      "payable": false,
      "stateMutability": "view",
      "type": "function"
    },
    {
      "constant": false,
      "inputs": [],
      "name": "finishMigration",
      "outputs": [],
      "payable": false,
      "stateMutability": "nonpayable",
      "type": "function"
    },
    {
      "constant": true,
      "inputs": [],
      "name": "granularity",
      "outputs": [
        {
          "internalType": "uint256",
          "name": "",
          "type": "uint256"
        }
      ],
      "payable": false,
      "stateMutability": "view",
      "type": "function"
    },
    {
      "constant": true,
      "inputs": [],
      "name": "in_migration",
      "outputs": [
        {
          "internalType": "bool",
          "name": "",
          "type": "bool"
        }
      ],
      "payable": false,
      "stateMutability": "view",
      "type": "function"
    },
    {
      "constant": true,
      "inputs": [
        {
          "internalType": "address",
          "name": "operator",
          "type": "address"
        },
        {
          "internalType": "address",
          "name": "tokenHolder",
          "type": "address"
        }
      ],
      "name": "isOperatorFor",
      "outputs": [
        {
          "internalType": "bool",
          "name": "",
          "type": "bool"
        }
      ],
      "payable": false,
      "stateMutability": "view",
      "type": "function"
    },
    {
      "constant": true,
      "inputs": [],
      "name": "isOwner",
      "outputs": [
        {
          "internalType": "bool",
          "name": "",
          "type": "bool"
        }
      ],
      "payable": false,
      "stateMutability": "view",
      "type": "function"
    },
    {
      "constant": true,
      "inputs": [
        {
          "internalType": "address",
          "name": "account",
          "type": "address"
        }
      ],
      "name": "isPauser",
      "outputs": [
        {
          "internalType": "bool",
          "name": "",
          "type": "bool"
        }
      ],
      "payable": false,
      "stateMutability": "view",
      "type": "function"
    },
    {
      "constant": true,
      "inputs": [],
      "name": "name",
      "outputs": [
        {
          "internalType": "string",
          "name": "",
          "type": "string"
        }
      ],
      "payable": false,
      "stateMutability": "view",
      "type": "function"
    },
    {
      "constant": false,
      "inputs": [
        {
          "internalType": "address",
          "name": "account",
          "type": "address"
        },
        {
          "internalType": "uint256",
          "name": "amount",
          "type": "uint256"
        },
        {
          "internalType": "bytes",
          "name": "data",
          "type": "bytes"
        },
        {
          "internalType": "bytes",
          "name": "operatorData",
          "type": "bytes"
        }
      ],
      "name": "operatorBurn",
      "outputs": [],
      "payable": false,
      "stateMutability": "nonpayable",
      "type": "function"
    },
    {
      "constant": false,
      "inputs": [
        {
          "internalType": "address",
          "name": "sender",
          "type": "address"
        },
        {
          "internalType": "address",
          "name": "recipient",
          "type": "address"
        },
        {
          "internalType": "uint256",
          "name": "amount",
          "type": "uint256"
        },
        {
          "internalType": "bytes",
          "name": "data",
          "type": "bytes"
        },
        {
          "internalType": "bytes",
          "name": "operatorData",
          "type": "bytes"
        }
      ],
      "name": "operatorSend",
      "outputs": [],
      "payable": false,
      "stateMutability": "nonpayable",
      "type": "function"
    },
    {
      "constant": true,
      "inputs": [],
      "name": "owner",
      "outputs": [
        {
          "internalType": "address",
          "name": "",
          "type": "address"
        }
      ],
      "payable": false,
      "stateMutability": "view",
      "type": "function"
    },
    {
      "constant": false,
      "inputs": [],
      "name": "pause",
      "outputs": [],
      "payable": false,
      "stateMutability": "nonpayable",
      "type": "function"
    },
    {
      "constant": true,
      "inputs": [],
      "name": "paused",
      "outputs": [
        {
          "internalType": "bool",
          "name": "",
          "type": "bool"
        }
      ],
      "payable": false,
      "stateMutability": "view",
      "type": "function"
    },
    {
      "constant": false,
      "inputs": [],
      "name": "renounceOwnership",
      "outputs": [],
      "payable": false,
      "stateMutability": "nonpayable",
      "type": "function"
    },
    {
      "constant": false,
      "inputs": [],
      "name": "renouncePauser",
      "outputs": [],
      "payable": false,
      "stateMutability": "nonpayable",
      "type": "function"
    },
    {
      "constant": false,
      "inputs": [
        {
          "internalType": "address",
          "name": "operator",
          "type": "address"
        }
      ],
      "name": "revokeOperator",
      "outputs": [],
      "payable": false,
      "stateMutability": "nonpayable",
      "type": "function"
    },
    {
      "constant": false,
      "inputs": [
        {
          "internalType": "address",
          "name": "recipient",
          "type": "address"
        },
        {
          "internalType": "uint256",
          "name": "amount",
          "type": "uint256"
        },
        {
          "internalType": "bytes",
          "name": "data",
          "type": "bytes"
        }
      ],
      "name": "send",
      "outputs": [],
      "payable": false,
      "stateMutability": "nonpayable",
      "type": "function"
    },
    {
      "constant": false,
      "inputs": [
        {
          "internalType": "address",
          "name": "holder",
          "type": "address"
        },
        {
          "internalType": "address",
          "name": "spender",
          "type": "address"
        },
        {
          "internalType": "uint256",
          "name": "amount",
          "type": "uint256"
        }
      ],
      "name": "setAllowance",
      "outputs": [],
      "payable": false,
      "stateMutability": "nonpayable",
      "type": "function"
    },
    {
      "constant": false,
      "inputs": [
        {
          "internalType": "address",
          "name": "account",
          "type": "address"
        },
        {
          "internalType": "uint256",
          "name": "balance",
          "type": "uint256"
        }
      ],
      "name": "setBalance",
      "outputs": [],
      "payable": false,
      "stateMutability": "nonpayable",
      "type": "function"
    },
    {
      "constant": false,
      "inputs": [
        {
          "internalType": "address",
          "name": "tokenHolder",
          "type": "address"
        },
        {
          "internalType": "address",
          "name": "operator",
          "type": "address"
        }
      ],
      "name": "setOpeartor",
      "outputs": [],
      "payable": false,
      "stateMutability": "nonpayable",
      "type": "function"
    },
    {
      "constant": false,
      "inputs": [
        {
          "internalType": "address",
          "name": "tokenHolder",
          "type": "address"
        },
        {
          "internalType": "address",
          "name": "operator",
          "type": "address"
        }
      ],
      "name": "setRevokedDefaultOperator",
      "outputs": [],
      "payable": false,
      "stateMutability": "nonpayable",
      "type": "function"
    },
    {
      "constant": false,
      "inputs": [
        {
          "internalType": "uint256",
          "name": "totalSupply",
          "type": "uint256"
        }
      ],
      "name": "setTotalSupply",
      "outputs": [],
      "payable": false,
      "stateMutability": "nonpayable",
      "type": "function"
    },
    {
      "constant": true,
      "inputs": [],
      "name": "symbol",
      "outputs": [
        {
          "internalType": "string",
          "name": "",
          "type": "string"
        }
      ],
      "payable": false,
      "stateMutability": "view",
      "type": "function"
    },
    {
      "constant": true,
      "inputs": [],
      "name": "totalSupply",
      "outputs": [
        {
          "internalType": "uint256",
          "name": "",
          "type": "uint256"
        }
      ],
      "payable": false,
      "stateMutability": "view",
      "type": "function"
    },
    {
      "constant": false,
      "inputs": [
        {
          "internalType": "address",
          "name": "recipient",
          "type": "address"
        },
        {
          "internalType": "uint256",
          "name": "amount",
          "type": "uint256"
        }
      ],
      "name": "transfer",
      "outputs": [
        {
          "internalType": "bool",
          "name": "",
          "type": "bool"
        }
      ],
      "payable": false,
      "stateMutability": "nonpayable",
      "type": "function"
    },
    {
      "constant": false,
      "inputs": [
        {
          "internalType": "address",
          "name": "holder",
          "type": "address"
        },
        {
          "internalType": "address",
          "name": "recipient",
          "type": "address"
        },
        {
          "internalType": "uint256",
          "name": "amount",
          "type": "uint256"
        }
      ],
      "name": "transferFrom",
      "outputs": [
        {
          "internalType": "bool",
          "name": "",
          "type": "bool"
        }
      ],
      "payable": false,
      "stateMutability": "nonpayable",
      "type": "function"
    },
    {
      "constant": false,
      "inputs": [
        {
          "internalType": "address",
          "name": "newOwner",
          "type": "address"
        }
      ],
      "name": "transferOwnership",
      "outputs": [],
      "payable": false,
      "stateMutability": "nonpayable",
      "type": "function"
    },
    {
      "constant": false,
      "inputs": [],
      "name": "unpause",
      "outputs": [],
      "payable": false,
      "stateMutability": "nonpayable",
      "type": "function"
    },
    {
      "constant": false,
      "inputs": [
        {
          "internalType": "address",
          "name": "account",
          "type": "address"
        },
        {
          "internalType": "uint256",
          "name": "amount",
          "type": "uint256"
        },
        {
          "internalType": "string",
          "name": "defi",
          "type": "string"
        },
        {
          "internalType": "string",
          "name": "tx_id",
          "type": "string"
        }
      ],
      "name": "mint",
      "outputs": [
        {
          "internalType": "bool",
          "name": "",
          "type": "bool"
        }
      ],
      "payable": false,
      "stateMutability": "nonpayable",
      "type": "function"
    },
    {
      "constant": false,
      "inputs": [
        {
          "internalType": "address",
          "name": "useraddr",
          "type": "address"
        },
        {
          "internalType": "uint256",
          "name": "amount",
          "type": "uint256"
        },
        {
          "internalType": "string",
          "name": "addr",
          "type": "string"
        },
        {
          "internalType": "address",
          "name": "defi_relayer",
          "type": "address"
        }
      ],
      "name": "burn",
      "outputs": [
        {
          "internalType": "bool",
          "name": "",
          "type": "bool"
        }
      ],
      "payable": false,
      "stateMutability": "nonpayable",
      "type": "function"
    },
    {
      "constant": false,
      "inputs": [
        {
          "internalType": "uint256",
          "name": "amount",
          "type": "uint256"
        },
        {
          "internalType": "bytes",
          "name": "data",
          "type": "bytes"
        }
      ],
      "name": "burn",
      "outputs": [],
      "payable": false,
      "stateMutability": "nonpayable",
      "type": "function"
    }
  ],
  "bytecode": "0x60806040523480156200001157600080fd5b50604051620043f2380380620043f2833981810160405260608110156200003757600080fd5b81019080805160405193929190846401000000008211156200005857600080fd5b9083019060208201858111156200006e57600080fd5b82516401000000008111828201881017156200008957600080fd5b82525081516020918201929091019080838360005b83811015620000b85781810151838201526020016200009e565b50505050905090810190601f168015620000e65780820380516001836020036101000a031916815260200191505b50604052602001805160405193929190846401000000008211156200010a57600080fd5b9083019060208201858111156200012057600080fd5b82516401000000008111828201881017156200013b57600080fd5b82525081516020918201929091019080838360005b838110156200016a57818101518382015260200162000150565b50505050905090810190601f168015620001985780820380516001836020036101000a031916815260200191505b5060405260200180516040519392919084640100000000821115620001bc57600080fd5b908301906020820185811115620001d257600080fd5b8251866020820283011164010000000082111715620001f057600080fd5b82525081516020918201928201910280838360005b838110156200021f57818101518382015260200162000205565b5050505090500160405250505082828262000252620002436200050f60201b60201c565b6001600160e01b036200051416565b6001805460ff19169055825162000271906004906020860190620006e6565b50815162000287906005906020850190620006e6565b5080516200029d9060069060208401906200076b565b5060005b600654811015620003365760016007600060068481548110620002c057fe5b6000918252602080832091909101546001600160a01b031683528201929092526040019020805460ff1916911515919091179055600680546200032d9190839081106200030957fe5b6000918252602090912001546001600160a01b03166001600160e01b036200056616565b600101620002a1565b50604080516a22a9219b9b9baa37b5b2b760a91b8152815190819003600b0181206329965a1d60e01b82523060048301819052602483019190915260448201529051731820a4b7618bde71dce8cdc73aab6c95905fad24916329965a1d91606480830192600092919082900301818387803b158015620003b557600080fd5b505af1158015620003ca573d6000803e3d6000fd5b5050604080516922a92199182a37b5b2b760b11b8152815190819003600a0181206329965a1d60e01b82523060048301819052602483019190915260448201529051731820a4b7618bde71dce8cdc73aab6c95905fad2493506329965a1d9250606480830192600092919082900301818387803b1580156200044b57600080fd5b505af115801562000460573d6000803e3d6000fd5b50505050620004746200050f60201b60201c565b600b80546001600160a01b0319166001600160a01b03929092169190911790555050600e805460ff19166001179055506000620004b06200050f565b600e8054610100600160a81b0319166101006001600160a01b03841690810291909117909155604051919250906000907f8be0079c531659141344cd1fd0a4f28419497f9722a3daafe3b4186f6b6457e0908290a35050505062000815565b335b90565b6200052f816000620005f060201b620038381790919060201c565b6040516001600160a01b038216907f6719d08c1888103bea251a4ed56406bd0c3e69723c8a1686e017e7bbe159b6f890600090a250565b6001600160a01b0381166000908152600d602052604090205460ff16620005ed576001600160a01b0381166000818152600d60205260408120805460ff19166001908117909155600c805491820181559091527fdf6966c971051c3d54ec59162606531493a51404a002842f56009d7e5cf4a8c70180546001600160a01b03191690911790555b50565b6200060582826001600160e01b036200067d16565b1562000658576040805162461bcd60e51b815260206004820152601f60248201527f526f6c65733a206163636f756e7420616c72656164792068617320726f6c6500604482015290519081900360640190fd5b6001600160a01b0316600090815260209190915260409020805460ff19166001179055565b60006001600160a01b038216620006c65760405162461bcd60e51b8152600401808060200182810382526022815260200180620043d06022913960400191505060405180910390fd5b506001600160a01b03166000908152602091909152604090205460ff1690565b828054600181600116156101000203166002900490600052602060002090601f016020900481019282601f106200072957805160ff191683800117855562000759565b8280016001018555821562000759579182015b82811115620007595782518255916020019190600101906200073c565b5062000767929150620007d1565b5090565b828054828255906000526020600020908101928215620007c3579160200282015b82811115620007c357825182546001600160a01b0319166001600160a01b039091161782556020909201916001909101906200078c565b5062000767929150620007ee565b6200051191905b80821115620007675760008155600101620007d8565b6200051191905b80821115620007675780546001600160a01b0319168155600101620007f5565b613bab80620008256000396000f3fe608060405234801561001057600080fd5b50600436106102d35760003560e01c80638456cb5911610186578063d95b6371116100e3578063e89b0e1e11610097578063fad8b32a11610071578063fad8b32a14610b55578063fc673c4f14610b7b578063fe9d930314610cbd576102d3565b8063e89b0e1e14610aec578063f2fde38b14610b12578063f7ea7a3d14610b38576102d3565b8063dd62ed3e116100c8578063dd62ed3e14610a8a578063e30443bc14610ab8578063e4af29fc14610ae4576102d3565b8063d95b637114610a26578063da46098c14610a54576102d3565b806395d89b411161013a578063a9059cbb1161011f578063a9059cbb1461092c578063bc8bde6414610958578063d68ffc2f14610960576102d3565b806395d89b41146108695780639bd9bbc614610871576102d3565b80638da5cb5b1161016b5780638da5cb5b146108335780638f32d59b1461083b578063959b8c3f14610843576102d3565b80638456cb591461082357806388d761f21461082b576102d3565b806346e87df6116102345780636ef8d66d116101e8578063715018a6116101cd578063715018a6146107ed578063776b92aa146107f557806382dc1ec4146107fd576102d3565b80636ef8d66d146107bf57806370a08231146107c7576102d3565b8063556f0dc711610219578063556f0dc7146106625780635c975abb1461066a57806362ad1b8314610672576102d3565b806346e87df61461060e57806346fbf68e1461063c576102d3565b806323b872dd1161028b578063313ce56711610270578063313ce567146105af5780633a24f907146105cd5780633f4ba83a14610606576102d3565b806323b872dd146104375780632fb102cf1461046d576102d3565b806306fdde03116102bc57806306fdde0314610360578063095ea7b3146103dd57806318160ddd1461041d576102d3565b8063059f3110146102d857806306e4853814610308575b600080fd5b610306600480360360408110156102ee57600080fd5b506001600160a01b0381358116916020013516610d6a565b005b610310610f1d565b60408051602080825283518183015283519192839290830191858101910280838360005b8381101561034c578181015183820152602001610334565b505050509050019250505060405180910390f35b610368610f7f565b6040805160208082528351818301528351919283929083019185019080838360005b838110156103a257818101518382015260200161038a565b50505050905090810190601f1680156103cf5780820380516001836020036101000a031916815260200191505b509250505060405180910390f35b610409600480360360408110156103f357600080fd5b506001600160a01b03813516906020013561100c565b604080519115158252519081900360200190f35b6104256110b6565b60408051918252519081900360200190f35b6104096004803603606081101561044d57600080fd5b506001600160a01b038135811691602081013590911690604001356110bc565b6104096004803603608081101561048357600080fd5b6001600160a01b03823516916020810135918101906060810160408201356401000000008111156104b357600080fd5b8201836020820111156104c557600080fd5b803590602001918460018302840111640100000000831117156104e757600080fd5b91908080601f016020809104026020016040519081016040528093929190818152602001838380828437600092019190915250929594936020810193503591505064010000000081111561053a57600080fd5b82018360208201111561054c57600080fd5b8035906020019184600183028401116401000000008311171561056e57600080fd5b91908080601f01602080910402602001604051908101604052809392919081815260200183838082843760009201919091525092955061128b945050505050565b6105b7611479565b6040805160ff9092168252519081900360200190f35b6105ea600480360360208110156105e357600080fd5b503561147e565b604080516001600160a01b039092168252519081900360200190f35b6103066114a5565b6103066004803603604081101561062457600080fd5b506001600160a01b0381358116916020013516611597565b6104096004803603602081101561065257600080fd5b50356001600160a01b031661177b565b610425611793565b610409611798565b610306600480360360a081101561068857600080fd5b6001600160a01b038235811692602081013590911691604082013591908101906080810160608201356401000000008111156106c357600080fd5b8201836020820111156106d557600080fd5b803590602001918460018302840111640100000000831117156106f757600080fd5b91908080601f016020809104026020016040519081016040528093929190818152602001838380828437600092019190915250929594936020810193503591505064010000000081111561074a57600080fd5b82018360208201111561075c57600080fd5b8035906020019184600183028401116401000000008311171561077e57600080fd5b91908080601f0160208091040260200160405190810160405280939291908181526020018383808284376000920191909152509295506117a1945050505050565b610306611856565b610425600480360360208110156107dd57600080fd5b50356001600160a01b0316611868565b610306611883565b610409611939565b6103066004803603602081101561081357600080fd5b50356001600160a01b0316611942565b610306611994565b610306611a5a565b6105ea611acd565b610409611ae1565b6103066004803603602081101561085957600080fd5b50356001600160a01b0316611b0c565b610368611cb9565b6103066004803603606081101561088757600080fd5b6001600160a01b03823516916020810135918101906060810160408201356401000000008111156108b757600080fd5b8201836020820111156108c957600080fd5b803590602001918460018302840111640100000000831117156108eb57600080fd5b91908080601f016020809104026020016040519081016040528093929190818152602001838380828437600092019190915250929550611d1a945050505050565b6104096004803603604081101561094257600080fd5b506001600160a01b038135169060200135611d97565b6105ea611ebc565b6104096004803603608081101561097657600080fd5b6001600160a01b03823516916020810135918101906060810160408201356401000000008111156109a657600080fd5b8201836020820111156109b857600080fd5b803590602001918460018302840111640100000000831117156109da57600080fd5b91908080601f016020809104026020016040519081016040528093929190818152602001838380828437600092019190915250929550505090356001600160a01b03169150611ecb9050565b61040960048036036040811015610a3c57600080fd5b506001600160a01b038135811691602001351661201b565b61030660048036036060811015610a6a57600080fd5b506001600160a01b038135811691602081013590911690604001356120bd565b61042560048036036040811015610aa057600080fd5b506001600160a01b03813581169160200135166121d4565b61030660048036036040811015610ace57600080fd5b506001600160a01b0381351690602001356121ff565b610425612327565b61030660048036036020811015610b0257600080fd5b50356001600160a01b031661232d565b61030660048036036020811015610b2857600080fd5b50356001600160a01b03166123cb565b61030660048036036020811015610b4e57600080fd5b503561242d565b61030660048036036020811015610b6b57600080fd5b50356001600160a01b031661253e565b61030660048036036080811015610b9157600080fd5b6001600160a01b0382351691602081013591810190606081016040820135640100000000811115610bc157600080fd5b820183602082011115610bd357600080fd5b80359060200191846001830284011164010000000083111715610bf557600080fd5b91908080601f0160208091040260200160405190810160405280939291908181526020018383808284376000920191909152509295949360208101935035915050640100000000811115610c4857600080fd5b820183602082011115610c5a57600080fd5b80359060200191846001830284011164010000000083111715610c7c57600080fd5b91908080601f0160208091040260200160405190810160405280939291908181526020018383808284376000920191909152509295506126dd945050505050565b61030660048036036040811015610cd357600080fd5b81359190810190604081016020820135640100000000811115610cf557600080fd5b820183602082011115610d0757600080fd5b80359060200191846001830284011164010000000083111715610d2957600080fd5b91908080601f01602080910402602001604051908101604052809392919081815260200183838082843760009201919091525092955061278e945050505050565b600b546001600160a01b0316610d7e612803565b6001600160a01b031614610dd1576040805162461bcd60e51b815260206004820152601560248201527439b2b73232b91034b9903737ba1031b932b0ba37b960591b604482015290519081900360640190fd5b600e5460ff16610e1d576040805162461bcd60e51b81526020600482015260126024820152711b5a59dc985d1a5bdb88199a5b9a5cda195960721b604482015290519081900360640190fd5b610e25611798565b610e76576040805162461bcd60e51b815260206004820152601d60248201527f746f6b656e206e6f742070617573656420696e206d6967726174696f6e000000604482015290519081900360640190fd5b806001600160a01b0316826001600160a01b03161415610ec75760405162461bcd60e51b81526004018080602001828103825260218152602001806139e16021913960400191505060405180910390fd5b6001600160a01b03811660009081526007602052604090205460ff1615610f19576001600160a01b038083166000908152600960209081526040808320938516835292905220805460ff191660011790555b5050565b60606006805480602002602001604051908101604052809291908181526020018280548015610f7557602002820191906000526020600020905b81546001600160a01b03168152600190910190602001808311610f57575b5050505050905090565b60048054604080516020601f6002600019610100600188161502019095169490940493840181900481028201810190925282815260609390929091830182828015610f755780601f10610fe057610100808354040283529160200191610f75565b820191906000526020600020905b815481529060010190602001808311610fee57509395945050505050565b60015460009060ff161561105a576040805162461bcd60e51b815260206004820152601060248201526f14185d5cd8589b194e881c185d5cd95960821b604482015290519081900360640190fd5b811580159061108b5750336000908152600a602090815260408083206001600160a01b038716845290915290205415155b1561109557600080fd5b600061109f612803565b90506110ac818585612807565b5060019392505050565b60035490565b60015460009060ff161561110a576040805162461bcd60e51b815260206004820152601060248201526f14185d5cd8589b194e881c185d5cd95960821b604482015290519081900360640190fd5b6001600160a01b03831661114f5760405162461bcd60e51b8152600401808060200182810382526024815260200180613a926024913960400191505060405180910390fd5b6001600160a01b0384166111945760405162461bcd60e51b8152600401808060200182810382526026815260200180613b0b6026913960400191505060405180910390fd5b600061119e612803565b90506111cc8186868660405180602001604052806000815250604051806020016040528060008152506128bb565b6111f8818686866040518060200160405280600081525060405180602001604052806000815250612b03565b611252858261124d86604051806060016040528060298152602001613ae2602991396001600160a01b03808c166000908152600a60209081526040808320938b1683529290522054919063ffffffff612d2616565b612807565b6112808186868660405180602001604052806000815250604051806020016040528060008152506000612dbd565b506001949350505050565b6000611295611ae1565b6112e6576040805162461bcd60e51b815260206004820181905260248201527f4f776e61626c653a2063616c6c6572206973206e6f7420746865206f776e6572604482015290519081900360640190fd5b60015460ff1615611331576040805162461bcd60e51b815260206004820152601060248201526f14185d5cd8589b194e881c185d5cd95960821b604482015290519081900360640190fd5b61136361133c612803565b8686604051806020016040528060008152506040518060200160405280600081525061305d565b83856001600160a01b03167fe2406cfd356cfbe4e42d452bde96d27f48c423e5f02b5d78695893308399519d8585604051808060200180602001838103835285818151815260200191508051906020019080838360005b838110156113d25781810151838201526020016113ba565b50505050905090810190601f1680156113ff5780820380516001836020036101000a031916815260200191505b50838103825284518152845160209182019186019080838360005b8381101561143257818101518382015260200161141a565b50505050905090810190601f16801561145f5780820380516001836020036101000a031916815260200191505b5094505050505060405180910390a3506001949350505050565b601290565b600c818154811061148b57fe5b6000918252602090912001546001600160a01b0316905081565b6114b56114b0612803565b61177b565b6114f05760405162461bcd60e51b81526004018080602001828103825260308152602001806139456030913960400191505060405180910390fd5b60015460ff16611547576040805162461bcd60e51b815260206004820152601460248201527f5061757361626c653a206e6f7420706175736564000000000000000000000000604482015290519081900360640190fd5b6001805460ff191690557f5db9ee0a495bf2e6ff9c91a7834c1ba4fdd244a5e8aa4e537bd38aeae4b073aa61157a612803565b604080516001600160a01b039092168252519081900360200190a1565b600b546001600160a01b03166115ab612803565b6001600160a01b0316146115fe576040805162461bcd60e51b815260206004820152601560248201527439b2b73232b91034b9903737ba1031b932b0ba37b960591b604482015290519081900360640190fd5b600e5460ff1661164a576040805162461bcd60e51b81526020600482015260126024820152711b5a59dc985d1a5bdb88199a5b9a5cda195960721b604482015290519081900360640190fd5b611652611798565b6116a3576040805162461bcd60e51b815260206004820152601d60248201527f746f6b656e206e6f742070617573656420696e206d6967726174696f6e000000604482015290519081900360640190fd5b806001600160a01b0316826001600160a01b031614156116f45760405162461bcd60e51b81526004018080602001828103825260248152602001806139bd6024913960400191505060405180910390fd5b6001600160a01b03811660009081526007602052604090205460ff1615611747576001600160a01b038083166000908152600960209081526040808320938516835292905220805460ff19169055610f19565b6001600160a01b038083166000908152600860209081526040808320938516835292905220805460ff191660011790555050565b600061178d818363ffffffff61328a16565b92915050565b600190565b60015460ff1690565b60015460ff16156117ec576040805162461bcd60e51b815260206004820152601060248201526f14185d5cd8589b194e881c185d5cd95960821b604482015290519081900360640190fd5b6117fd6117f7612803565b8661201b565b6118385760405162461bcd60e51b815260040180806020018281038252602c815260200180613ab6602c913960400191505060405180910390fd5b61184f611843612803565b868686868660016132f1565b5050505050565b611866611861612803565b6133c5565b565b6001600160a01b031660009081526002602052604090205490565b61188b611ae1565b6118dc576040805162461bcd60e51b815260206004820181905260248201527f4f776e61626c653a2063616c6c6572206973206e6f7420746865206f776e6572604482015290519081900360640190fd5b600e5460405160009161010090046001600160a01b0316907f8be0079c531659141344cd1fd0a4f28419497f9722a3daafe3b4186f6b6457e0908390a3600e805474ffffffffffffffffffffffffffffffffffffffff0019169055565b600e5460ff1681565b61194d6114b0612803565b6119885760405162461bcd60e51b81526004018080602001828103825260308152602001806139456030913960400191505060405180910390fd5b6119918161340d565b50565b61199f6114b0612803565b6119da5760405162461bcd60e51b81526004018080602001828103825260308152602001806139456030913960400191505060405180910390fd5b60015460ff1615611a25576040805162461bcd60e51b815260206004820152601060248201526f14185d5cd8589b194e881c185d5cd95960821b604482015290519081900360640190fd5b6001805460ff1916811790557f62e78cea01bee320cd4e420270b5ea74000d11b0c9f74754ebdbfc544b05a25861157a612803565b600b546001600160a01b0316611a6e612803565b6001600160a01b031614611ac1576040805162461bcd60e51b815260206004820152601560248201527439b2b73232b91034b9903737ba1031b932b0ba37b960591b604482015290519081900360640190fd5b600e805460ff19169055565b600e5461010090046001600160a01b031690565b600e5460009061010090046001600160a01b0316611afd612803565b6001600160a01b031614905090565b60015460ff1615611b57576040805162461bcd60e51b815260206004820152601060248201526f14185d5cd8589b194e881c185d5cd95960821b604482015290519081900360640190fd5b806001600160a01b0316611b69612803565b6001600160a01b03161415611baf5760405162461bcd60e51b81526004018080602001828103825260248152602001806139bd6024913960400191505060405180910390fd5b6001600160a01b03811660009081526007602052604090205460ff1615611c125760096000611bdc612803565b6001600160a01b03908116825260208083019390935260409182016000908120918516815292529020805460ff19169055611c59565b600160086000611c20612803565b6001600160a01b03908116825260208083019390935260409182016000908120918616815292529020805460ff19169115159190911790555b611c61612803565b6001600160a01b0316816001600160a01b03167ff4caeb2d6ca8932a215a353d0703c326ec2d81fc68170f320eb2ab49e9df61f960405160405180910390a3611cb0611cab612803565b61232d565b6119918161232d565b60058054604080516020601f6002600019610100600188161502019095169490940493840181900481028201810190925282815260609390929091830182828015610f755780601f10610fe057610100808354040283529160200191610f75565b60015460ff1615611d65576040805162461bcd60e51b815260206004820152601060248201526f14185d5cd8589b194e881c185d5cd95960821b604482015290519081900360640190fd5b611d92611d70612803565b611d78612803565b8585856040518060200160405280600081525060016132f1565b505050565b60015460009060ff1615611de5576040805162461bcd60e51b815260206004820152601060248201526f14185d5cd8589b194e881c185d5cd95960821b604482015290519081900360640190fd5b6001600160a01b038316611e2a5760405162461bcd60e51b8152600401808060200182810382526024815260200180613a926024913960400191505060405180910390fd5b6000611e34612803565b9050611e628182868660405180602001604052806000815250604051806020016040528060008152506128bb565b611e8e818286866040518060200160405280600081525060405180602001604052806000815250612b03565b6110ac8182868660405180602001604052806000815250604051806020016040528060008152506000612dbd565b600b546001600160a01b031681565b60015460009060ff1615611f19576040805162461bcd60e51b815260206004820152601060248201526f14185d5cd8589b194e881c185d5cd95960821b604482015290519081900360640190fd5b611f52611f24612803565b611f2c612803565b866040518060200160405280600081525060405180602001604052806000815250613455565b846001600160a01b0316847fd13f822d1c33fa32df0d6caea488b8c2b084e117a466bfac36a31c4908bf253485856040518080602001836001600160a01b03166001600160a01b03168152602001828103825284818151815260200191508051906020019080838360005b83811015611fd5578181015183820152602001611fbd565b50505050905090810190601f1680156120025780820380516001836020036101000a031916815260200191505b50935050505060405180910390a3506001949350505050565b6000816001600160a01b0316836001600160a01b0316148061208657506001600160a01b03831660009081526007602052604090205460ff16801561208657506001600160a01b0380831660009081526009602090815260408083209387168352929052205460ff16155b806120b657506001600160a01b0380831660009081526008602090815260408083209387168352929052205460ff165b9392505050565b600b546001600160a01b03166120d1612803565b6001600160a01b031614612124576040805162461bcd60e51b815260206004820152601560248201527439b2b73232b91034b9903737ba1031b932b0ba37b960591b604482015290519081900360640190fd5b600e5460ff16612170576040805162461bcd60e51b81526020600482015260126024820152711b5a59dc985d1a5bdb88199a5b9a5cda195960721b604482015290519081900360640190fd5b612178611798565b6121c9576040805162461bcd60e51b815260206004820152601d60248201527f746f6b656e206e6f742070617573656420696e206d6967726174696f6e000000604482015290519081900360640190fd5b611d92838383612807565b6001600160a01b039182166000908152600a6020908152604080832093909416825291909152205490565b600b546001600160a01b0316612213612803565b6001600160a01b031614612266576040805162461bcd60e51b815260206004820152601560248201527439b2b73232b91034b9903737ba1031b932b0ba37b960591b604482015290519081900360640190fd5b600e5460ff166122b2576040805162461bcd60e51b81526020600482015260126024820152711b5a59dc985d1a5bdb88199a5b9a5cda195960721b604482015290519081900360640190fd5b6122ba611798565b61230b576040805162461bcd60e51b815260206004820152601d60248201527f746f6b656e206e6f742070617573656420696e206d6967726174696f6e000000604482015290519081900360640190fd5b6001600160a01b03909116600090815260026020526040902055565b600c5490565b6001600160a01b0381166000908152600d602052604090205460ff16611991576001600160a01b03166000818152600d60205260408120805460ff19166001908117909155600c805491820181559091527fdf6966c971051c3d54ec59162606531493a51404a002842f56009d7e5cf4a8c70180547fffffffffffffffffffffffff0000000000000000000000000000000000000000169091179055565b6123d3611ae1565b612424576040805162461bcd60e51b815260206004820181905260248201527f4f776e61626c653a2063616c6c6572206973206e6f7420746865206f776e6572604482015290519081900360640190fd5b61199181613682565b600b546001600160a01b0316612441612803565b6001600160a01b031614612494576040805162461bcd60e51b815260206004820152601560248201527439b2b73232b91034b9903737ba1031b932b0ba37b960591b604482015290519081900360640190fd5b600e5460ff166124e0576040805162461bcd60e51b81526020600482015260126024820152711b5a59dc985d1a5bdb88199a5b9a5cda195960721b604482015290519081900360640190fd5b6124e8611798565b612539576040805162461bcd60e51b815260206004820152601d60248201527f746f6b656e206e6f742070617573656420696e206d6967726174696f6e000000604482015290519081900360640190fd5b600355565b60015460ff1615612589576040805162461bcd60e51b815260206004820152601060248201526f14185d5cd8589b194e881c185d5cd95960821b604482015290519081900360640190fd5b612591612803565b6001600160a01b0316816001600160a01b031614156125e15760405162461bcd60e51b81526004018080602001828103825260218152602001806139e16021913960400191505060405180910390fd5b6001600160a01b03811660009081526007602052604090205460ff161561264d57600160096000612610612803565b6001600160a01b03908116825260208083019390935260409182016000908120918616815292529020805460ff191691151591909117905561268b565b60086000612659612803565b6001600160a01b03908116825260208083019390935260409182016000908120918516815292529020805460ff191690555b612693612803565b6001600160a01b0316816001600160a01b03167f50546e66e5f44d728365dc3908c63bc5cfeeab470722c1677e3073a6ac294aa160405160405180910390a3611cb0611cab612803565b60015460ff1615612728576040805162461bcd60e51b815260206004820152601060248201526f14185d5cd8589b194e881c185d5cd95960821b604482015290519081900360640190fd5b612739612733612803565b8561201b565b6127745760405162461bcd60e51b815260040180806020018281038252602c815260200180613ab6602c913960400191505060405180910390fd5b61278861277f612803565b85858585613455565b50505050565b60015460ff16156127d9576040805162461bcd60e51b815260206004820152601060248201526f14185d5cd8589b194e881c185d5cd95960821b604482015290519081900360640190fd5b610f196127e4612803565b6127ec612803565b848460405180602001604052806000815250613455565b3390565b6001600160a01b03821661284c5760405162461bcd60e51b8152600401808060200182810382526023815260200180613b546023913960400191505060405180910390fd5b6001600160a01b038084166000818152600a6020908152604080832094871680845294825291829020859055815185815291517f8c5be1e5ebec7d5bd14f71427d1e84f3dd0314c0f7b2291e5b200ac8c7c3b9259281900390910190a36128b28361232d565b611d928261232d565b6040805163555ddc6560e11b81526001600160a01b03871660048201527f29ddb589b1fb5fc7cf394961c1adf5f8c6454761adf795e67fe149f658abe89560248201529051600091731820a4b7618bde71dce8cdc73aab6c95905fad249163aabbb8ca91604480820192602092909190829003018186803b15801561293f57600080fd5b505afa158015612953573d6000803e3d6000fd5b505050506040513d602081101561296957600080fd5b505190506001600160a01b03811615612afa57806001600160a01b03166375ab97828888888888886040518763ffffffff1660e01b815260040180876001600160a01b03166001600160a01b03168152602001866001600160a01b03166001600160a01b03168152602001856001600160a01b03166001600160a01b031681526020018481526020018060200180602001838103835285818151815260200191508051906020019080838360005b83811015612a2f578181015183820152602001612a17565b50505050905090810190601f168015612a5c5780820380516001836020036101000a031916815260200191505b50838103825284518152845160209182019186019080838360005b83811015612a8f578181015183820152602001612a77565b50505050905090810190601f168015612abc5780820380516001836020036101000a031916815260200191505b5098505050505050505050600060405180830381600087803b158015612ae157600080fd5b505af1158015612af5573d6000803e3d6000fd5b505050505b50505050505050565b612b468360405180606001604052806027815260200161391e602791396001600160a01b038816600090815260026020526040902054919063ffffffff612d2616565b6001600160a01b038087166000908152600260205260408082209390935590861681522054612b7b908463ffffffff61373b16565b60026000866001600160a01b03166001600160a01b0316815260200190815260200160002081905550836001600160a01b0316856001600160a01b0316876001600160a01b03167f06b541ddaa720db2b10a4d0cdac39b8d360425fc073085fac19bc82614677987868686604051808481526020018060200180602001838103835285818151815260200191508051906020019080838360005b83811015612c2d578181015183820152602001612c15565b50505050905090810190601f168015612c5a5780820380516001836020036101000a031916815260200191505b50838103825284518152845160209182019186019080838360005b83811015612c8d578181015183820152602001612c75565b50505050905090810190601f168015612cba5780820380516001836020036101000a031916815260200191505b509550505050505060405180910390a4836001600160a01b0316856001600160a01b03167fddf252ad1be2c89b69c2b068fc378daa952ba7f163c4a11628f55a4df523b3ef856040518082815260200191505060405180910390a3612d1e8461232d565b505050505050565b60008184841115612db55760405162461bcd60e51b81526004018080602001828103825283818151815260200191508051906020019080838360005b83811015612d7a578181015183820152602001612d62565b50505050905090810190601f168015612da75780820380516001836020036101000a031916815260200191505b509250505060405180910390fd5b505050900390565b6040805163555ddc6560e11b81526001600160a01b03871660048201527fb281fc8c12954d22544db45de3159a39272895b169a852b314f9cc762e44c53b60248201529051600091731820a4b7618bde71dce8cdc73aab6c95905fad249163aabbb8ca91604480820192602092909190829003018186803b158015612e4157600080fd5b505afa158015612e55573d6000803e3d6000fd5b505050506040513d6020811015612e6b57600080fd5b505190506001600160a01b03811615612fff57806001600160a01b03166223de298989898989896040518763ffffffff1660e01b815260040180876001600160a01b03166001600160a01b03168152602001866001600160a01b03166001600160a01b03168152602001856001600160a01b03166001600160a01b031681526020018481526020018060200180602001838103835285818151815260200191508051906020019080838360005b83811015612f30578181015183820152602001612f18565b50505050905090810190601f168015612f5d5780820380516001836020036101000a031916815260200191505b50838103825284518152845160209182019186019080838360005b83811015612f90578181015183820152602001612f78565b50505050905090810190601f168015612fbd5780820380516001836020036101000a031916815260200191505b5098505050505050505050600060405180830381600087803b158015612fe257600080fd5b505af1158015612ff6573d6000803e3d6000fd5b50505050613053565b811561305357613017866001600160a01b0316613795565b156130535760405162461bcd60e51b815260040180806020018281038252604d815260200180613a45604d913960600191505060405180910390fd5b5050505050505050565b6001600160a01b0384166130b8576040805162461bcd60e51b815260206004820181905260248201527f4552433737373a206d696e7420746f20746865207a65726f2061646472657373604482015290519081900360640190fd5b6003546130cb908463ffffffff61373b16565b6003556001600160a01b0384166000908152600260205260409020546130f7908463ffffffff61373b16565b6001600160a01b038516600090815260026020526040812091909155613124908690868686866001612dbd565b836001600160a01b0316856001600160a01b03167f2fe5be0146f74c5bce36c0b80911af6c7d86ff27e89d5cfa61fc681327954e5d858585604051808481526020018060200180602001838103835285818151815260200191508051906020019080838360005b838110156131a357818101518382015260200161318b565b50505050905090810190601f1680156131d05780820380516001836020036101000a031916815260200191505b50838103825284518152845160209182019186019080838360005b838110156132035781810151838201526020016131eb565b50505050905090810190601f1680156132305780820380516001836020036101000a031916815260200191505b509550505050505060405180910390a36040805184815290516001600160a01b038616916000917fddf252ad1be2c89b69c2b068fc378daa952ba7f163c4a11628f55a4df523b3ef9181900360200190a361184f8461232d565b60006001600160a01b0382166132d15760405162461bcd60e51b8152600401808060200182810382526022815260200180613a236022913960400191505060405180910390fd5b506001600160a01b03166000908152602091909152604090205460ff1690565b6001600160a01b0386166133365760405162461bcd60e51b81526004018080602001828103825260228152602001806138fc6022913960400191505060405180910390fd5b6001600160a01b038516613391576040805162461bcd60e51b815260206004820181905260248201527f4552433737373a2073656e6420746f20746865207a65726f2061646472657373604482015290519081900360640190fd5b61339f8787878787876128bb565b6133ad878787878787612b03565b6133bc87878787878787612dbd565b612afa8561232d565b6133d660008263ffffffff6137d116565b6040516001600160a01b038216907fcd265ebaf09df2871cc7bd4133404a235ba12eff2041bb89d9c714a2621c7c7e90600090a250565b61341e60008263ffffffff61383816565b6040516001600160a01b038216907f6719d08c1888103bea251a4ed56406bd0c3e69723c8a1686e017e7bbe159b6f890600090a250565b6001600160a01b03841661349a5760405162461bcd60e51b815260040180806020018281038252602281526020018061399b6022913960400191505060405180910390fd5b6134a9858560008686866128bb565b6134ec83604051806060016040528060238152602001613b31602391396001600160a01b038716600090815260026020526040902054919063ffffffff612d2616565b6001600160a01b038516600090815260026020526040902055600354613518908463ffffffff6138b916565b600381905550836001600160a01b0316856001600160a01b03167fa78a9be3a7b862d26933ad85fb11d80ef66b8f972d7cbba06621d583943a4098858585604051808481526020018060200180602001838103835285818151815260200191508051906020019080838360005b8381101561359d578181015183820152602001613585565b50505050905090810190601f1680156135ca5780820380516001836020036101000a031916815260200191505b50838103825284518152845160209182019186019080838360005b838110156135fd5781810151838201526020016135e5565b50505050905090810190601f16801561362a5780820380516001836020036101000a031916815260200191505b509550505050505060405180910390a36040805184815290516000916001600160a01b038716917fddf252ad1be2c89b69c2b068fc378daa952ba7f163c4a11628f55a4df523b3ef9181900360200190a35050505050565b6001600160a01b0381166136c75760405162461bcd60e51b81526004018080602001828103825260268152602001806139756026913960400191505060405180910390fd5b600e546040516001600160a01b0380841692610100900416907f8be0079c531659141344cd1fd0a4f28419497f9722a3daafe3b4186f6b6457e090600090a3600e80546001600160a01b039092166101000274ffffffffffffffffffffffffffffffffffffffff0019909216919091179055565b6000828201838110156120b6576040805162461bcd60e51b815260206004820152601b60248201527f536166654d6174683a206164646974696f6e206f766572666c6f770000000000604482015290519081900360640190fd5b6000813f7fc5d2460186f7233c927e7db2dcc703c0e500b653ca82273b7bfad8045d85a4708181148015906137c957508115155b949350505050565b6137db828261328a565b6138165760405162461bcd60e51b8152600401808060200182810382526021815260200180613a026021913960400191505060405180910390fd5b6001600160a01b0316600090815260209190915260409020805460ff19169055565b613842828261328a565b15613894576040805162461bcd60e51b815260206004820152601f60248201527f526f6c65733a206163636f756e7420616c72656164792068617320726f6c6500604482015290519081900360640190fd5b6001600160a01b0316600090815260209190915260409020805460ff19166001179055565b60006120b683836040518060400160405280601e81526020017f536166654d6174683a207375627472616374696f6e206f766572666c6f770000815250612d2656fe4552433737373a2073656e642066726f6d20746865207a65726f20616464726573734552433737373a207472616e7366657220616d6f756e7420657863656564732062616c616e6365506175736572526f6c653a2063616c6c657220646f6573206e6f742068617665207468652050617573657220726f6c654f776e61626c653a206e6577206f776e657220697320746865207a65726f20616464726573734552433737373a206275726e2066726f6d20746865207a65726f20616464726573734552433737373a20617574686f72697a696e672073656c66206173206f70657261746f724552433737373a207265766f6b696e672073656c66206173206f70657261746f72526f6c65733a206163636f756e7420646f6573206e6f74206861766520726f6c65526f6c65733a206163636f756e7420697320746865207a65726f20616464726573734552433737373a20746f6b656e20726563697069656e7420636f6e747261637420686173206e6f20696d706c656d656e74657220666f7220455243373737546f6b656e73526563697069656e744552433737373a207472616e7366657220746f20746865207a65726f20616464726573734552433737373a2063616c6c6572206973206e6f7420616e206f70657261746f7220666f7220686f6c6465724552433737373a207472616e7366657220616d6f756e74206578636565647320616c6c6f77616e63654552433737373a207472616e736665722066726f6d20746865207a65726f20616464726573734552433737373a206275726e20616d6f756e7420657863656564732062616c616e63654552433737373a20617070726f766520746f20746865207a65726f2061646472657373a265627a7a7231582036cccd98c7f3ebf1041d605295a9d2bc2d53825c5f750dbca0f07f506aa3a95c64736f6c63430005100032526f6c65733a206163636f756e7420697320746865207a65726f2061646472657373",
  "source": "pragma solidity 0.5.16;\n\nimport \"./ERC777.sol\";\nimport \"@openzeppelin/contracts/ownership/Ownable.sol\";\nimport \"@openzeppelin/contracts/lifecycle/Pausable.sol\";\n\ncontract TokenBase is ERC777, Ownable {\n    event Minted(\n        address indexed toAddress,\n        uint256 indexed amount,\n        string defi,\n        string tx_id\n    );\n    event Burnt(\n        uint256 indexed amount,\n        string toAddress,\n        address indexed fromAddress,\n        address defi_relayer\n    );\n\n    constructor(\n        string memory name,\n        string memory symbol,\n        address[] memory defaultOperators\n    ) public ERC777(name, symbol, defaultOperators) {}\n\n    /* ===== Mint & Burn =====*/\n    function mint(\n        address account,\n        uint256 amount,\n        string memory defi,\n        string memory tx_id\n    ) public onlyOwner whenNotPaused returns (bool) {\n        _mint(_msgSender(), account, amount, \"\", \"\");\n        emit Minted(account, amount, defi, tx_id);\n        return true;\n    }\n\n    /*\n        dex burn cToken from its banker address to withdraw token to user.\n        Here useraddr is user conflux address, addr is user btc/eth address.\n    */\n    function burn(\n        address useraddr,\n        uint256 amount,\n        string memory addr,\n        address defi_relayer\n    ) public whenNotPaused returns (bool) {\n        _burn(_msgSender(), _msgSender(), amount, \"\", \"\");\n        emit Burnt(amount, addr, useraddr, defi_relayer);\n        return true;\n    }\n}\n",
  "sourcePath": "/Users/kang/work/nft-dex/boomflow-contract/contracts/ERC777/TokenBase.sol",
  "compiler": {
    "name": "solc",
    "version": "0.5.16+commit.9c3226ce.Emscripten.clang"
  },
  "schemaVersion": "3.0.23",
  "updatedAt": "2023-06-05T10:19:39.864Z",
  "devdoc": {
    "methods": {
      "allowance(address,address)": {
        "details": "See {IERC20-allowance}.     * Note that operator and allowance concepts are orthogonal: operators may not have allowance, and accounts with allowance may not be operators themselves."
      },
      "approve(address,uint256)": {
        "details": "See {IERC20-approve}.     * Note that accounts cannot have allowance issued by their operators."
      },
      "authorizeOperator(address)": {
        "details": "See {IERC777-authorizeOperator}."
      },
      "balanceOf(address)": {
        "details": "Returns the amount of tokens owned by an account (`tokenHolder`)."
      },
      "burn(uint256,bytes)": {
        "details": "See {IERC777-burn}.     * Also emits a {IERC20-Transfer} event for ERC20 compatibility."
      },
      "decimals()": {
        "details": "See {ERC20Detailed-decimals}.     * Always returns 18, as per the [ERC777 EIP](https://eips.ethereum.org/EIPS/eip-777#backward-compatibility)."
      },
      "defaultOperators()": {
        "details": "See {IERC777-defaultOperators}."
      },
      "granularity()": {
        "details": "See {IERC777-granularity}.     * This implementation always returns `1`."
      },
      "isOperatorFor(address,address)": {
        "details": "See {IERC777-isOperatorFor}."
      },
      "isOwner()": {
        "details": "Returns true if the caller is the current owner."
      },
      "name()": {
        "details": "See {IERC777-name}."
      },
      "operatorBurn(address,uint256,bytes,bytes)": {
        "details": "See {IERC777-operatorBurn}.     * Emits {Burned} and {IERC20-Transfer} events."
      },
      "operatorSend(address,address,uint256,bytes,bytes)": {
        "details": "See {IERC777-operatorSend}.     * Emits {Sent} and {IERC20-Transfer} events."
      },
      "owner()": {
        "details": "Returns the address of the current owner."
      },
      "pause()": {
        "details": "Called by a pauser to pause, triggers stopped state."
      },
      "paused()": {
        "details": "Returns true if the contract is paused, and false otherwise."
      },
      "renounceOwnership()": {
        "details": "Leaves the contract without owner. It will not be possible to call `onlyOwner` functions anymore. Can only be called by the current owner.     * NOTE: Renouncing ownership will leave the contract without an owner, thereby removing any functionality that is only available to the owner."
      },
      "revokeOperator(address)": {
        "details": "See {IERC777-revokeOperator}."
      },
      "send(address,uint256,bytes)": {
        "details": "See {IERC777-send}.     * Also emits a {IERC20-Transfer} event for ERC20 compatibility."
      },
      "symbol()": {
        "details": "See {IERC777-symbol}."
      },
      "totalSupply()": {
        "details": "See {IERC777-totalSupply}."
      },
      "transfer(address,uint256)": {
        "details": "See {IERC20-transfer}.     * Unlike `send`, `recipient` is _not_ required to implement the {IERC777Recipient} interface if it is a contract.     * Also emits a {Sent} event."
      },
      "transferFrom(address,address,uint256)": {
        "details": "See {IERC20-transferFrom}.    * Note that operator and allowance concepts are orthogonal: operators cannot call `transferFrom` (unless they have allowance), and accounts with allowance cannot call `operatorSend` (unless they are operators).    * Emits {Sent}, {IERC20-Transfer} and {IERC20-Approval} events."
      },
      "transferOwnership(address)": {
        "details": "Transfers ownership of the contract to a new account (`newOwner`). Can only be called by the current owner."
      },
      "unpause()": {
        "details": "Called by a pauser to unpause, returns to normal state."
      }
    }
  },
  "userdoc": {
    "methods": {}
  }
}